:020000040800F2
:100000002008002005020008F10C0008B10A0008D1
:10001000E10A000869030008370E0008000000002C
:10002000000000000000000000000000D10D0008EA
:10003000D503000800000000CD0D0008D30D000816
:100040001F0200081F0200081F0200081F0200080C
:100050001F020008CF0D00081F0200081F02000841
:100060001F0200081F0200081F0200081F020008EC
:100070001F0200081F0200081F0200081F020008DC
:100080001F0200081F0200081F0200081F020008CC
:100090001F0200081F0200081F0200081F020008BC
:1000A0001F0200081F0200081F0200081F020008AC
:1000B0001F0200081F0200081F0200081F0200089C
:1000C0001F0200081F0200081F0200081F0200088C
:1000D0001F0200081F0200081F0200081F0200087C
:1000E0001F0200081F0200081F0200081F0200086C
:1000F0001F0200081F0200081F0200081F0200085C
:100100001F0200081F0200081F0200081F0200084B
:100110001F0200081F0200081F0200081F0200083B
:100120001F0200081F0200081F0200081F0200082B
:1001300000F002F800F03CF80AA090E8000C8244BD
:100140008344AAF10107DA4501D100F031F8AFF29A
:10015000090EBAE80F0013F0010F18BFFB1A43F0A5
:10016000010318470021000020210000103A24BF9D
:1001700078C878C1FAD8520724BF30C830C144BF0C
:1001800004680C607047000000230024002500264E
:10019000103A28BF78C1FBD8520728BF30C148BFEA
:1001A0000B6070471FB500F062F81FBD10B510BDA1
:1001B00000F0A4F81146FFF7F5FF01F0BBF800F0DE
:1001C000C2F803B4FFF7F2FF03BC00F0C7F8000069
:1001D0000B49D1F800C04A685CF8043B1068184429
:1001E00042F8040B8C4528BFA1F1DC0C8A4228BFE1
:1001F000A1F1DC02C1F800C04A6020F00040704765
:10020000B80100200948804709480047FEE7FEE79B
:10021000FEE7FEE7FEE7FEE7FEE7FEE7FEE7FEE7B6
:1002200004480549054A064B70470000350E000892
:1002300031010008200200202008002020040020B6
:10024000200400200B4910B5A1F17C020A4CC2E940
:100250003712372106E000EB104342F82130074BFC
:1002600000FB03400B1EA1F10101F4DC10BD0120D5
:10027000E8E7000058010020E119D666CD0D010025
:100280004FF0000200B5134694469646203922BF2F
:10029000A0E80C50A0E80C50B1F12001BFF4F7AF7A
:1002A000090728BFA0E80C5048BF0CC05DF804EB5C
:1002B000890028BF40F8042B08BF704748BF20F8CA
:1002C000022B11F0804F18BF00F8012B70477047C8
:1002D0007047704710B500F009F8006810BD10B500
:1002E000044600F003F8046010BD000000487047A9
:1002F000C001002000487047C00100207546FFF78C
:10030000F9FFAE4605006946534620F007008546D2
:1003100018B020B5FFF784FFBDE820404FF000067D
:100320004FF000074FF000084FF0000B21F00701DD
:10033000AC46ACE8C009ACE8C009ACE8C009ACE820
:10034000C0098D46704710B50446AFF300802046C3
:10035000BDE81040FFF735BF704700000149182085
:10036000ABBEFEE726000200FEE7000038B50446FB
:100370000948406800900948006801F017FC0546EC
:1003800020680099081A01F011FC294601F018FBB9
:100390000099216038BD0000001000E0240000201A
:1003A00008490A6842F080720A60074900224A60E0
:1003B0000A6842F001020A6004494843044908609F
:1003C00070470000FCED00E0001000E040420F002C
:1003D00024000020704700002DE9F041224C234DFD
:1003E000234E20694FF04048E0B1E06801F048FA40
:1003F0002A46334601F046F901F0F2F800F004FE17
:100400000546A06800F0CEFE414601F017FC01F061
:10041000D1F8294601F012FC2169C1F101012161E5
:10042000BDE8F081FFF7D4FE01F014F96FF01E076C
:100430003A4601F06AFE01F0D3F8A060FFF7C8FE6B
:1004400001F008F93A4601F060FE01F0C9F8E060F9
:1004500001F016FA2A46334601F014F901F0C0F80B
:1004600000F0E4FFCCE700002800002044174154CE
:10047000FB211940C06A7047406A7047806A704724
:1004800070B5044600F00EF80546601C02D0044822
:100490000078044400F006F8401BA042FAD370BD77
:1004A00014000020014880687047000014000020FC
:1004B000024881680278114481607047140000206E
:1004C000074810B5016841F010010160032000F0F9
:1004D0007DF80F2000F006F800F024F8002010BD91
:1004E0000020024070B50D4D04464FF47A71287813
:1004F000B1FBF0F00A490968B1FBF0F000F0C4FA72
:1005000048B9102C07D200222146501E00F03EF8B8
:1005100000206C6070BD012070BD00001400002040
:1005200020000020104808B5816941F00101816177
:10053000816901F001010091C16941F08051C161FF
:10054000C069002200F0805000901146052000F0A4
:100550001DF8052000F00CF80448416821F0E06126
:1005600041F00071416008BD0010024000000140F0
:10057000002809DB00F01F020121914040098000A2
:1005800000F1E020C0F8001170470000F0B40E4BFD
:100590001B680C46C3F30223C3F10705042D00D9E1
:1005A0000425191D072901D2002300E0DB1E0126C6
:1005B00006FA05F1491E214099409E40761E1640DC
:1005C0003143F0BC00F04BBC0CED00E0064900F0FC
:1005D000070208684FF6FF03184040EA0220034A6A
:1005E00010430860704700000CED00E00000FA05C1
:1005F0002DE9F0470F46050061D0434E306800F00A
:100600000700B84209D2306820F007003843306054
:10061000306800F00700B84251D128683B4C810790
:1006200012D5400703D5606840F4E0606060287828
:10063000000703D5606840F4605060606068A96896
:1006400020F0F000084360602878C00728D0686870
:10065000012810D02168022810D0890700292EDA3D
:10066000616821F0030101436160FFF71BFF8046D1
:1006700041F288390DE021688903EFE78901EDE750
:10068000FFF710FFA0EB0801494502D90320BDE8A0
:10069000F0876068696800F00C00B0EB810FEFD163
:1006A000306800F00700B8420BD9306820F007002E
:1006B00038433060306800F00700B84201D00120B4
:1006C000E5E72878400705D56068E96820F4E06030
:1006D000084360602878000706D56068296920F41F
:1006E000605040EAC100606000F018F86168084A94
:1006F000C1F30311515CC840064908600648006810
:10070000FFF7F0FE0020C2E7002002400010024088
:10071000F421000820000020180000200E4A516833
:100720000E4801F00C03042B11D0082B0FD10C48FC
:10073000C1F38343C903C05C0AD55168084AC1F3B9
:100740004041921E515C054A5043B0FBF1F07047A6
:1007500004494843704700000010024000127A002C
:10076000E421000800093D002DE9F84F040070D095
:100770002078C04DC00749D06868C0F381000128C7
:1007800007D06868C0F38100022809D16868C003F7
:1007900006D52868800339D560680028E7D035E0A1
:1007A0006068B0F5803F0BD010B1B0F5A02F11D02C
:1007B000286820F480302860286820F4802002E037
:1007C000286840F480302860606890B1FFF76AFEC6
:1007D00006460AE0286840F480202860F0E700BF61
:1007E000FFF760FE801B642873D828688003F7D564
:1007F0000CE0FFF757FE064605E000BFFFF752FE8C
:10080000801B6428F0D828688003F7D420789A4E9B
:1008100080074FF001094FF0000839D5686810F0E3
:100820000C0F07D06868C0F38100022809D16868FE
:10083000C00306D42868800714D52069012808D190
:1008400010E02069B0B1C6F80090FFF72BFE074614
:1008500005E00AE1FFF726FEC01B0228C4D828687D
:100860008007F7D52868616920F0F80040EAC100E8
:1008700028600DE0C6F80080FFF714FE074604E08C
:10088000FFF710FEC01B022823D828688007F7D482
:10089000207800072CD57948A169D9B1C0F800901B
:1008A000FFF700FE074604E0FFF7FCFDC01B02282F
:1008B0000FD8686A8007F7D571484FF4FA5100687D
:1008C000B0FBF1F0009000BF0098411E0091FAD2F9
:1008D0000EE080E0C0F80080FFF7E4FD074604E08A
:1008E000FFF7E0FDC01B022875D8686A8007F7D4BF
:1008F0002078400760D5E8690027C00008D4E8697F
:1009000040F08050E861E869012700F080500090D5
:100910005C480168C90513D40168834641F48071BD
:100920000160FFF7BFFD824606E000BFFFF7BAFD9A
:10093000A0EB0A0064284ED8DBF80000C005F5D50E
:10094000E06801280AD008B1052813D0286A20F0F1
:1009500001002862286A20F0040002E0286A40F0C2
:1009600001002862E06841F2883B98B1FFF79AFDE8
:1009700082460BE0286A40F004002862EEE700BFE0
:10098000FFF790FDA0EB0A0159455AD8286A800765
:10099000F6D50CE0FFF786FD824605E0FFF782FD05
:1009A000A0EB0A0159454CD8286A8007F6D41FB13C
:1009B000E86920F08050E861E06988B36968C1F3B4
:1009C0008101022944D00228C6F8608004D0FFF7D4
:1009D00069FD044638E034E0FFF764FD074604E0B3
:1009E000FFF760FDC01B02282BD828688001F7D4D0
:1009F000206AB0F5803F05D16868A16820F4003016
:100A000008436860D4E908010843696821F4741157
:100A100008436860C6F86090FFF744FD044606E0AE
:100A200025E000BFFFF73EFD001B022809D828681B
:100A30008001F7D51BE000BFFFF734FD001B022843
:100A400002D90320BDE8F88F28688001F4D40EE0B5
:100A50000128F7D06868226A00F48031914204D1FD
:100A6000616A00F47010884201D00120EAE700209A
:100A7000E8E70000001002400000424280044242C9
:100A8000200000200070004010B5401EB0F1807FB3
:100A900001D3012010BD4FF0E02460610F216017E9
:100AA00000F0DDF90020A06107202061002010BDCA
:100AB000FEE70000094808B5816941F02001816125
:100AC000816901F020010091816941F00401816197
:100AD000806900F00400009008BD00000010024092
:100AE000FEE700000C4941630C4981630C49C16376
:100AF0000C4901640C4941640C4981644FF07C51FC
:100B0000C1640B490163002141608160C160816162
:100B1000C1610162704700001283403D8FC2F53C05
:100B20002DB23D3FFE65373F6666E63F2766BD3B1B
:100B30000000C0412DE9F047056B0E46044685F0E4
:100B4000004791463946304601F044F801D23D460F
:100B500005E02946304601F03DF900D33546676887
:100B6000606C394601F06AF8A66880463146206C10
:100B700001F064F8294601F08FF9414601F01EFAB0
:100B8000A16C00F01DFF2061A16900F0A5FE49469F
:100B900001F054F84FF0FF35294601F0E4FA3946E8
:100BA00000F09AFE014660604C4A26F000409042F8
:100BB0000ADAE06B01F042F820F00040E16C01F04D
:100BC00009F801D200201AE0A66816F1FF4F02D200
:100BD0004FF07E5000E04248E16C01F02FF80746EC
:100BE0003146A06B01F02AF806466168E06B01F01F
:100BF00025F8314601F0E2F9394601F0DFF960618C
:100C0000616B00F0DDFE60610646E16900F064FEA4
:100C1000494601F013F82F46294601F0A4FAA168CD
:100C200000F05AFEA0600546216A00F055FE4946D4
:100C300001F004F8394601F096FAE16800F04CFE44
:100C4000E06020692562C4E90606FFF7C5FB254977
:100C500000F0F4FF616800F03FFE234E314600F0E3
:100C6000AFFE0D2101F07FFA00F08CFA00F086FF54
:100C70006FF00C05294601F076FA314600F0DEFFF0
:100C80001A4E60623146E06800F09AFE0D2101F0D4
:100C90006AFA00F077FA00F071FF294601F063FA72
:100CA000314600F0CBFFE16A01F088F9494600F0D7
:100CB00087FEA0623146E06800F082FE0D2101F05F
:100CC00052FA00F05FFA00F059FF294601F04BFAA2
:100CD000314600F0B3FFE062BDE8F0876F12033BDE
:100CE000000080BF9A99993E56555541DA0FC94088
:100CF000FEE700002DE9F041184C88460168606964
:100D000001F05CF905464146A06100F097FF2168BB
:100D100000F0E2FD2060E66907463146284601F012
:100D20004DF9414600F04CFE6060C4E907560146AB
:100D3000206900F083FF06463946E06800F07EFF38
:100D400007462946A06800F079FF394600F0C4FD47
:100D5000314600F0C1FD6062BDE8F0816400002012
:100D60002DE9F041184C88460168606901F026F9C8
:100D700005464146A06100F061FF216800F0ACFD2E
:100D80002060E66907463146284601F017F94146DA
:100D900000F016FE6060C4E907560146206900F0C5
:100DA0004DFF06463946E06800F048FF07462946F1
:100DB000A06800F043FF394600F08EFD314600F098
:100DC0008BFD6062BDE8F0813C00002070477047F9
:100DD0007047FFF76DBB30B58FB028216846FFF72D
:100DE0004FFA14210AA8FFF74BFA01210804CDE9B4
:100DF00000100024029402250491CDE907504FF41D
:100E0000E01009906846FFF7AFFC08B172B6FEE744
:100E10000F20CDE90A054FF48060CDE90C40022196
:100E20000AA80E94FFF7E4FB002801D072B6FEE793
:100E30000FB030BD7047FEE74100080218BF042024
:100E40000A0E18BF40F001004FF07F4232EA010164
:100E500008BF40F00200012808BF052070470907BD
:100E6000090E002804DB00F1E02080F80014704730
:100E700000F00F0000F1E02080F8141D7047002101
:100E80004FF07E5000F09CBD012101F06CB90021B3
:100E9000084600F095BD6FF05E01080701F063B9E8
:100EA0002DE9F04D0D4614464FF07F41B1EB440F54
:100EB0009EBF4FF0FF312960BDE8F08D4FF000403C
:100EC00040EA0421C4F3C750783810F01F024A4B9F
:100ED0004FEA601CC2F120067B44C4F3C750A0F166
:100EE00078004FEA601003EB800053F82C3008BF05
:100EF000D0E901C612D0D0F804C093402CFA06F70E
:100F00003B4387680CFA02FC27FA06F8C06807FA28
:100F100002F2F0404CEA080C42EA0006A3FB013260
:100F2000ACFB01C0A6FB016101EB0C068E4234BF95
:100F30004FF0010C4FF0000CC1186144BCF1000FE0
:100F400002D0814202D903E0814201D2012000E0B7
:100F50000020104400F120024FEA92188006CA0CCB
:100F600040EA42304F03C5F8008000F007FE824699
:100F7000384600F01BFE6FF0120101F0F4F807464E
:100F8000304600F013FE6FF0250101F0ECF88346C7
:100F90003946504600F0A0FC594600F09DFC00F593
:100FA00000666FF30B065146304601F007F83946EC
:100FB00001F004F8594600F06FFF104900F03EFEC2
:100FC00007460F49304600F039FE394600F084FCF0
:100FD00007460C49304600F031FE394600F07CFCF3
:100FE00014F0004F08BFBDE8F08DC8F1805180F0CB
:100FF00000402960BDE8F08D68130000DB0FC92FA9
:1010000022AAFD290000C92F2DE9F8430446024613
:101010004F486946B0EB420F09D94FF0E640B0EBBC
:10102000420F94BF00204FF0FF30009030E0494B5A
:1010300022F00040834271D94749204600F0FEFD6E
:1010400000F0FAFE804600F07DFD00F00300009005
:101050004249404600F0F2FD05464149404600F055
:10106000EDFD06463F49404600F0E8FD07463E4993
:10107000404600F0E3FD214600F00EFF394600F047
:101080009DFF314600F09AFF294600F097FF044685
:101090002546009C002C45DB294614F0010F08462C
:1010A0001CD000F0CBFD0646304900F0C7FD3049AA
:1010B00000F0F2FE314600F0C1FD2E4900F00CFCBC
:1010C000314600F0BBFD294600F0B8FD294600F08E
:1010D00003FC14F0020F1CD0BDE8F88300F0AEFD55
:1010E0000546254900F0AAFD244900F0F5FB2946F4
:1010F00000F0A4FD224900F0EFFB294600F09EFD20
:101100004FF07E5100F0E8FB14F0020F08BFBDE87D
:10111000F88380F00040BDE8F883FFE71046FFF752
:10112000BFFEB4E76800B0F17F4F3CBF4FF07E5088
:10113000BDE8F88307D14FF00100FFF7D0F8BDE814
:10114000F843FFF7A4BE2846BDE8F843FFF79CBE6E
:10115000B61F927E490E494683F9223F1A61342C0C
:101160000020A23300A0FD390000C93F336D4C3987
:10117000DA82083CA0AA2ABEB93AB2BACA9F2A3D6E
:10118000DDFFFFBE70B5054600F0DCFC044600F054
:10119000F5FC294600F080FEB0F17C5F00DD641CA8
:1011A000204670BD2DE9F0410026A0F50001B1F107
:1011B000FE4F7DD200F500226FF07E0101EBE2517F
:1011C000C2F3025477184FF07E52A0EBC15602EBE7
:1011D000045557EA040047D02946304600F07CFB0E
:1011E00080462946304600F0E9FE414600F0E8FB23
:1011F0000546014600F022FD8046454900F01EFDEF
:10120000444900F069FB06464146284600F016FDB9
:10121000314600F013FD0646384600F0AFFC0746A5
:101220003D4900F00BFD3D49794451F8241000F090
:1012300053FB314600F050FB06460121284600F0E2
:1012400092FF314600F048FB05463846344900F02D
:10125000F5FC3449794451F8241000F03DFB29464F
:10126000BDE8F04100F038BB4FF07E51304600F051
:10127000A5FE05462C4900F0E1FC2C4900F02CFBB2
:10128000294600F0DBFC2A4900F026FB294600F045
:10129000D5FC6FF0824100F01FFB0446294608464A
:1012A00000F0CCFC214600F0C9FC0146284600E0D5
:1012B00003E0BDE8F04100F00FBB4FF07F42B2EB1E
:1012C000400F03D2BDE8F041FFF7DEBDB0F1FF4FA4
:1012D00008BFBDE8F081B0F1004F06D90120FEF74C
:1012E000FEFFBDE8F041FFF7D2BD30F0004105D070
:1012F0006FF01606172100F036FF5BE70220FEF7BD
:10130000EEFFFFF7BCFD80F00040BDE8F08100007B
:1013100066F1CC3EAAAA2A3FF4FD0538F80F00007A
:101320000070313FAC0F000021ED423E0A1180BE3B
:10133000C1ABAA3EFFF7C4F8FFF74DFDFFF7BAFBBC
:101340004820FFF72DF82148FFF7CCFB1F48503805
:1013500000F056F81D48283800F03CF81B4D1C4C96
:101360004FF07E564FF0804719481030FEF7FEFFD1
:101370000146A060606800F0AFFA60601348FFF7B4
:101380007BF868601148FFF779F8A8600F48FFF70D
:1013900071F8E8602068B04205D10C48A168283097
:1013A000FFF7DEFCE0602068B84205D10748A1687D
:1013B0002C30FFF79FFCE060D4E902210348FFF7DF
:1013C000B9FB0120FFF75CF8CEE700008C0000209D
:1013D000000000200021084A0160C0E90112120249
:1013E000C2604FF07E520261044AC0E90521C0E9A3
:1013F000072141627047000000004040000020418A
:101400000021084A0160C0E901121202C2604FF0D7
:101410007E520261044AC0E90521C0E90721416208
:101420007047000000004040000020412DE9F843D3
:101430000446024652486946B0EB420F09D94FF0C4
:10144000E640B0EB420F94BF00204FF0FF30009019
:1014500030E04C4B22F00040834271D94A4920468B
:1014600000F0ECFB00F0E8FC804600F06BFB00F0C5
:10147000030000904549404600F0E0FB0546444922
:10148000404600F0DBFB06464249404600F0D6FBF2
:1014900007464149404600F0D1FB214600F0FCFCE4
:1014A000394600F08BFD314600F088FD294600F0FA
:1014B00085FD04462546009C002C45DB294614F09A
:1014C000010F08461ED000F0B9FB0546334900F075
:1014D000B5FB334900F000FA294600F0AFFB314973
:1014E00000F0FAF9294600F0A9FB4FF07E5100F018
:1014F000F3F914F0020F08BFBDE8F88380F0004054
:10150000BDE8F88300F09AFB0646274900F096FBF9
:10151000264900F0C1FC314600F090FB244900F060
:10152000DBF9314600F08AFB294600F087FB2946AB
:1015300000F0D2F914F0020FE0D1BDE8F883FFE724
:101540001046FFF7ADFCB4E76800B0F17F4F09D259
:101550002846FFF771FC042808BFFFF79CFC2846CB
:10156000BDE8F88306D10120FEF7B9FEBDE8F843D7
:10157000FFF78DBC2846BDE8F843FFF785BC0000A7
:10158000B61F927E490E494683F9223F1A61342CD8
:101590000020A23300A0FD390000C93FB93AB2BA19
:1015A000CA9F2A3DDDFFFFBE336D4C39DA82083C0D
:1015B000A0AA2ABE70B5054600F078FC044620F0CB
:1015C0000040C0F1FF40C00F08D025F00040C0F13E
:1015D000FF40C00F04BF0120FEF781FE204670BD12
:1015E00021F00042A2F16052B2F5801F01F00043E9
:1015F00028BFD2F17F6C0BD95FEA001C43EAC2021C
:1016000042EB507018BF704728BF20F001007047B0
:10161000B2F5801FBCBF184670474FEA410C1CF55D
:10162000001F02D2084600F0D0BB70B500F0D4F81D
:1016300000000089FFF7F6BF4FF00040A0F58000E2
:101640007047000002494FF0000000F02CBD00BFC1
:101650000000F87F10F0004248BF4042B0FA80F32B
:1016600010FA03F10AD0C3F11D0303F580634FEABA
:10167000415002EB035202EBD12170474FF00000C2
:1016800070470000DFF848C170B51CEA111E1EBF8C
:101690001CEA13159EEA0C0F95EA0C0F00F06F8000
:1016A00081EA030423EA4C134EEAD47E21EA4C116A
:1016B00041F4801143F48013AE44A1FB024CA0FB23
:1016C0000365AEF17F7E361955EB0C05A1FB034C8B
:1016D0004CF10003A0FB021C16EB0C06654153F114
:1016E0000003094218BF46F0010613F4007F0BD136
:1016F0004FEA03314FEA0530340341EA155140EA1D
:1017000016506FF003020AE04FEAC3214FEAC520EA
:10171000F40241EA555140EA56506FF0020202EBE2
:101720002E4201EB025585EACE710AD05FEA440CE5
:1017300018BF24F0004450F1000041F1000120EAFC
:10174000D47040F2FE7C624500D270BDA84214BF46
:101750004FF080444FF04044002E08BF0024BEF1FB
:10176000806FA8BFA1F1C041BDE8704080F28280C7
:101770004FF0000001F1C04101F0004170479EEAC6
:101780000C0F0CEA131518BF95EA0C0F06D04FF09A
:10179000000081EA030E0EF0004170BD00F01CF85D
:1017A0008900013E00F007B800F009B84FEA430C89
:1017B0005FEA5C5C08D081EA030100F05BB84FEAA5
:1017C000410C5FEA5C5CF6D14FF0000001497047C4
:1017D0000000FF070000F87F0EF1020E2EF0030E4E
:1017E0005EF8046B364205D4012A43EB030515F578
:1017F000001F12D8012841EB010C1CF5001F0CD86A
:101800000ED14FEAD17C15F5001F0CEB4C0C0CF1FE
:10181000020C08BF4CEBD37C04E04FF0080C01E055
:101820004FEAD37C0CEB4C0526FA05F606F00706CA
:10183000B6F1040C06D20EEB860CBDE870404CF0FD
:10184000010C6047DFE80CF0090B02024FF0004189
:101850004FF00000A1F5002170BD19461046012887
:1018600051EB010418BFD4F5001484BF002001F02F
:10187000004170BD0808A0F500114FEA3101704722
:1018800043004FEAD30C4FEA3C0C43401FBF4007D4
:101890000CF1605113F0FE4F70471CF0006F03D144
:1018A00000200CF0004170470CF0004343EA5070F8
:1018B00010B540EACC0000F042FA00BF00000092F0
:1018C0004FEA0001FFF7D6BF4FF000414FF0000094
:1018D000A1F500217047000090EA010F48BF81F098
:1018E000004100F17283421A3CBF801A89184FEA06
:1018F000D0524FF07F4C1CEA410FA2EBD15318BFDE
:101900009CEA026F00F03B804FF0004C4CEA002054
:101910004CEA012121FA03FC10EB0C0C1ED202F15F
:10192000FF325FEA1C2040EBC25038BF70471CF00A
:101930007F0F4FEA400C18BFBCF17F4F38BF704794
:10194000C3F12003994008BF20F00100BCF17F4F94
:1019500038BF7047A0F1C04000F037BA4FEA3C00F2
:10196000000A40EBC25028BF1CF0FF0F4FEA400CAA
:10197000E6D018BFBCF17F4F38BF7047EAE79CEA5A
:10198000026F05D010EA5C0F08BF00F000407047FE
:1019900010B500F0D4F900BF64FBBE3E014800F072
:1019A00082BB00BF0000C07F401058BFC0F1404064
:1019B000491058BFC1F140418142EFF300807047A8
:1019C0004FF47F0C1CEAD0121EBF1CEAD11392EA1E
:1019D0000C0F93EA0C0F00F0858090EA010F48BFCE
:1019E00042F4807240F4000C41F400002CF07F417E
:1019F00020F07F4000B58142A2EB03020FF2081CE9
:101A0000ACEB504EC0F100009EF800E04FEA4E0EE5
:101A100000FB0EFC38BF49004FEA2C1C02F5FA020D
:101A20000CFB0EF34FEACE1E4FEA112C4FEAC121F8
:101A30000EEB635E42EB22420EFB0CFC4FEA1C53A2
:101A400000FB03114FEA112C4FEA01310EFB0CFC95
:101A50004FEADC4C00FB0C11C14228BF09184CEBCB
:101A600003335DF804EB10EB410143EBC250B2F5D8
:101A70007C0F38BF704729D512F0F00F1CBF00F162
:101A8000C04000F0004070470081828384858687D3
:101A900088898B8C8D8E8F919293959697999A9C2D
:101AA0009D9FA0A2A3A5A7A8AAACAEB0B2B3B5B79C
:101AB000B9BCBEC0C2C5C7C9CCCED1D4D7D9DCDF72
:101AC000E2E6E9ECF0F3F7FAFE0000004FEA400C22
:101AD0000CF1807CBCF17E4F28BF7047B0F1C04054
:101AE00000F073B990EA010F0CEAD11348BF42F439
:101AF0008072624538BF634507D213F47F0F16D05A
:101B000080EA010000F00040704710B500F017F9BE
:101B1000097EFC3E00F005B880EA010000F00040BC
:101B2000704780EA010000F0004000F04EB912F466
:101B30007F0F04BF0248704780EA010000F045B9FA
:101B40000000C07F41000B0ED3F19E0208D950F473
:101B500000034FEA032323FA02F048BF40427047D4
:101B600010B500F0ECF800BF4992248000207047C7
:101B70006FF0004282EA20007047000010F0004140
:101B800048BF4042B0FA80F310FA03F2C3F19D035C
:101B90000BD051EAC35101EB1220530638BF7047F6
:101BA00000F1010008BF20F001007047B0FA80F397
:101BB00010FA03F2C3F19D030AD0D90501EB1220FC
:101BC000530638BF704700F1010008BF20F0010044
:101BD0007047000050EA010C00F113801CF5000F63
:101BE00058BFBCF5000F01D48842704707D710F5E5
:101BF000000F58BF11F5000F15D488427047894275
:101C000070471CF5000F04D5BCF5000FF7D58142D5
:101C100070474FF0807C1CEB400F38BF1CEB410F2E
:101C200001D28142704710B500F089F89224490032
:101C30004FF000504FF08051FFF7B6BE4FF47F0CCD
:101C40001CEAD0121EBF1CEAD11392EA0C0F93EAD1
:101C50000C0F00F0478090EA010F48BF42F48072F9
:101C60004FF0004C4CEA00204CEA012102EB030249
:101C7000A0FB0113A2F50002002918BF43F00103E5
:101C80005B0028BF4FEA330342EB22425FEA132C8A
:101C90004CEBC2502EBFBCEB436FB2F57C0F7047CC
:101CA0004FEA036CBCF1004F08BF20F00100B2F511
:101CB0007C0F38BF70470BD582F0FF0212F5803FD2
:101CC000C8BF704700F1C040D8BF00F00040704767
:101CD00000F5000C5FEA4C0C48BF7047B0F1C04003
:101CE00000F073B890EA010F0CEAD11348BF42F438
:101CF0008072624538BF634504D280EA010000F07B
:101D00000040704710B500F01AF800BF8900013E8E
:101D100000F007B800F009B85FEA410C5FEA1C6CFC
:101D200008D080EA010000F050B85FEA400C5FEA9A
:101D30001C6CF6D14FF00040A0F5800070470EF10A
:101D4000020E2EF0030E5EF8044B244204D44FEA38
:101D50004102B2F17F4F11D84FEA4003B3F17F4FF8
:101D60000CD80ED14FEAD07CB2F17F4F0CEB4C0C6B
:101D70000CF1020C08BF4CEBD17C04E04FF0080CD6
:101D800001E04FEAD17C0CEB4C0324FA03F404F09D
:101D90000704B4F1040C06D20EEB840CBDE810402D
:101DA0004CF0010C6047DFE80CF0070802024FF02E
:101DB0000040A0F5800010BD0846420018BFD2F1D7
:101DC000807288BF00F0004010BDFF2141EAD05072
:101DD000C005704751EA000C00F113801CF5000F9C
:101DE00058BFBCF5000F01D48142704707D711F5E9
:101DF000000F58BF10F5000F15D48142704789427B
:101E000070471CF5000F04D5BCF5000FF7D58842CC
:101E100070474FF0807C1CEB410F38BF1CEB400F2C
:101E200001D28842704780EA010081EA000180EA1D
:101E30000100FFF7F8BE00005FEA400C5FEA1C6C8F
:101E4000BCF17F0314D4D3F1170240F31C804FF090
:101E5000010C0CFA02FCACF101030340B3EB5C0291
:101E600020EA030008BF10EA0C0F88BF60447047E7
:101E7000B3F1FF3F28BF5FEA002C00F0004088BFAD
:101E800040F07E507047BCF1FF0FB8BF704710B5EF
:101E9000FFF755FF40DBB6BE80F0004090EA010F2F
:101EA0007FF521AD81F0004100F08FB84FEAD051AD
:101EB000002988BFD1F1FF0240F2758001F17D0158
:101EC0004FEA002070B5490840F0004038BF400894
:101ED0000EA2430E040CD25C02FB02F304FB03F3DC
:101EE000C3F14043A3FB0254ED0D45EA442202FB3B
:101EF00002F3A0FB03546D42C4F1404438BF641E9A
:101F0000A2FB05350023E2FB0453EA0B42EA4342FD
:101F1000A0FB023212F14004A2F12103E40903F014
:101F20007F031F2B32D904EBC15070BDFEFAF7F3CB
:101F3000F0ECE9E6E4E1DEDCD9D7D4D2D0CECCCAED
:101F4000C8C6C4C2C1BFBDBCBAB9B7B6B4B3B2B0DB
:101F5000AFAEACABAAA9A8A7A6A4A3A2A1A09F9E1E
:101F60009E9D9C9B9A9998979796959493939291FE
:101F700090908F8E8E8D8C8C8B8A8A8989888787AA
:101F800086868584848383828281818004FB04F633
:101F9000B6EB004603D5E64248BF641CC3E7A64241
:101FA00058BF641CBFE711F0FF0F02D100F00040E2
:101FB000704710B5FFF7C3FE7FDBFFBE90EA010F4D
:101FC00048BF81F000413FF58EAC421A04D882F040
:101FD0000042A0EB020011444FEAD0524FF07F4C78
:101FE0001CEA410FA2EBD15318BF9CEA026F4AD002
:101FF0004FF0004C4CEA00204CEA012121FA03FC8E
:10200000B0EB0C0C0FD412F0FE0F36D05FEA4C0090
:102010001DD5001240EBC25038BF70471CF03F0F77
:1020200018BF70470BE0A2F101025FEA1C2040EBF1
:10203000C25038BF70471CF07F0F18BF7047C3F104
:102040002003994014BF401E20F001007047800813
:102050004FEA122308BF7047B0FA80FCA2EB0C02D3
:10206000CCF1280C60FA0CF093EA122F04BF00EBBD
:10207000C25070474FEAC3707047130A5FEADC1022
:1020800008BF7047F6E79CEA026F04D010EA5C0FC5
:1020900008BF0020704710B5FFF751FE40DFF63E45
:1020A00081F0004070470CF00F03092B08BF082097
:1020B00000F07F800A2B0BD0082B18BF704708BF99
:1020C0001CF0400F0AD04FF000004FF000017047A5
:1020D0001CF0400F18BF4FF0004070471CF0100F6D
:1020E00008D020F0704300F07F4242EAD3014FEA6B
:1020F0004370704700F0604021F07F4242EA0002E6
:1021000001F07F4040EA727070474FF0FF0C4CF4D2
:10211000E06C1CEA11531CBF9CEA030C9445C2BF3F
:10212000DA4201EB02517047002B0DD0BCF1000FD9
:102130000FD0002A01F00041A4BF41F0E04141F07E
:102140007F614FF00000704701F000414FF0000048
:10215000704750EA01334FF09B0C18BF4CF0806C75
:102160007FF470AA70474FF0FF0212EAD0521CBFF2
:1021700092F0FF038B42C2BFD14200EBC1507047C7
:10218000002A0AD0002B0BD0002900F00040A4BF89
:1021900040F0FE4040F40000704700F000407047FF
:1021A00043024FF00B0C18BF4CF0806C7FF4F6AB81
:1021B00070471CF4801F11D01CF4E02F03D06FEA8D
:1021C000CC31490070474FF04050EFF3008222F0CD
:1021D000704242EA000282F3008870474FF000002C
:1021E0007047010202030405060708090A0B0C0DDB
:1021F0000E0F101000000000000000000102030498
:1022000006070809000000000030F13D0070643E40
:102210000000A33E0090CF3E0090F83E00400F3FEC
:1022200000E0203F0000000015B78337CDE37B3886
:102230000EE1C53860F69138AF5F0F38E1BC3E382B
:1022400023F44739000000006E83F9A22915444E9B
:10225000D15727FCC0DD34F5999562DB4190433CB2
:10226000AB6351FE84220008000000203C00000007
:102270006C010008C02200083C000020E4070000B8
:10228000880100080000004000000000000000007D
:10229000000000000000000001000000100000002D
:1022A0000000000000127A000000000000000000A2
:1022B000000000000000000000000000000000001E
:0400000508000131BD
:00000001FF
