:020000040800F2
:10000000D808002005020008991900080316000806
:100010008917000869030008C11D000800000000DE
:10002000000000000000000000000000791A000835
:10003000ED03000800000000751A00087B1A000894
:100040001F0200081F0200081F0200081F0200080C
:100050001F020008771A00081F0200081F0200088C
:100060001F0200081F0200081F0200081F020008EC
:100070001F0200081F0200081F0200081F020008DC
:100080001F0200081F0200081F020008A91D000827
:10009000B51D00086D030008790300081F02000861
:1000A000E11A0008051B0008F91A0008ED1A0008FB
:1000B0001F020008111B00081F0200081F02000891
:1000C0001F0200081F0200081F0200081F0200088C
:1000D0001F0200081F0200081F0200081F0200087C
:1000E0001F0200081F0200081F0200081F0200086C
:1000F0001F0200081F0200081F0200081F0200085C
:100100001F0200081F0200081F0200081F0200084B
:100110001F0200081F0200081F0200081F0200083B
:100120001F0200081F0200081F0200081F0200082B
:1001300000F002F800F03CF80AA090E8000C8244BD
:100140008344AAF10107DA4501D100F031F8AFF29A
:10015000090EBAE80F0013F0010F18BFFB1A43F0A5
:100160000103184794300000B4300000103A24BF57
:1001700078C878C1FAD8520724BF30C830C144BF0C
:1001800004680C607047000000230024002500264E
:10019000103A28BF78C1FBD8520728BF30C148BFEA
:1001A0000B6070471FB500F062F81FBD10B510BDA1
:1001B00000F0A4F81146FFF7F5FF02F081F800F017
:1001C000C2F803B4FFF7F2FF03BC00F0C7F8000069
:1001D0000B49D1F800C04A685CF8043B1068184429
:1001E00042F8040B8C4528BFA1F1DC0C8A4228BFE1
:1001F000A1F1DC02C1F800C04A6020F00040704765
:10020000700200200948804709480047FEE7FEE7E2
:10021000FEE7FEE7FEE7FEE7FEE7FEE7FEE7FEE7B6
:1002200004480549054A064B70470000DD1A0008DE
:1002300031010008D8020020D8080020D80400208E
:10024000D80400200B4910B5A1F17C020A4CC2E988
:100250003712372106E000EB104342F82130074BFC
:1002600000FB03400B1EA1F10101F4DC10BD0120D5
:10027000E8E7000010020020E119D666CD0D01006C
:100280004FF0000200B5134694469646203922BF2F
:10029000A0E80C50A0E80C50B1F12001BFF4F7AF7A
:1002A000090728BFA0E80C5048BF0CC05DF804EB5C
:1002B000890028BF40F8042B08BF704748BF20F8CA
:1002C000022B11F0804F18BF00F8012B70477047C8
:1002D0007047704710B500F009F8006810BD10B500
:1002E000044600F003F8046010BD000000487047A9
:1002F0007802002000487047780200207546FFF71A
:10030000F9FFAE4605006946534620F007008546D2
:1003100018B020B5FFF784FFBDE820404FF000067D
:100320004FF000074FF000084FF0000B21F00701DD
:10033000AC46ACE8C009ACE8C009ACE8C009ACE820
:10034000C0098D46704710B50446AFF300802046C3
:10035000BDE81040FFF735BF704700000149182085
:10036000ABBEFEE726000200FEE70000014800F0F9
:1003700096B80000DC000020014800F090B80000B2
:10038000DC00002038B50446094840680090094860
:10039000006802F0D5FB054620680099081A02F0B3
:1003A000CFFB294602F0D6FA0099216038BD000043
:1003B000001000E02400002008490A6842F0807222
:1003C0000A60074900224A600A6842F001020A6096
:1003D000044948430449086070470000FCED00E010
:1003E000001000E040420F0024000020704772B669
:1003F000FEE700002DE9F041224C234D234E2069F9
:100400004FF04048E0B1E06802F004FA2A46334673
:1004100002F002F902F0AEF801F0BCFD0546A0685A
:1004200001F086FE414602F0D3FB02F08DF829462A
:1004300002F0CEFB2169C1F101012161BDE8F0812B
:10044000FFF7C6FE02F0D0F86FF01E073A4602F042
:1004500026FE02F08FF8A060FFF7BAFE02F0C4F8A3
:100460003A4602F01CFE02F085F8E06002F0D2F994
:100470002A46334602F0D0F802F07CF801F0A0FFE3
:10048000CCE700002800002044174154FB2119400C
:10049000C06A7047406A7047806A704770472DE9AC
:1004A000F05F0546006800244669D0F8049087682C
:1004B000D0F80CB0D0F810A0D0F81880F10748D0D0
:1004C000F90714D001218160B80703D5284600F050
:1004D000CDF90CE0780702D54FF4006407E0380747
:1004E00002D54FF4805402E0284600F0BEF9F8052A
:1004F00016D529684FF480708860B80503D5284662
:1005000000F0B6F90CE0780502D544F4005407E099
:10051000380502D544F4804402E0284600F0A7F9EB
:10052000F80316D529684FF480308860B80303D5E6
:10053000284600F09FF90CE0780302D544F400440B
:1005400007E0380302D544F4803402E0284600F086
:1005500090F9300707D55FEACB6004D529681020F1
:1005600044F40074C86070074FF0080707D55FEACD
:100570000B7004D52868C760284600F071F9B007F1
:1005800006D52868C068800702D0284600F069F9BF
:10059000700607D55FEACA6004D52968102044F4C4
:1005A00080640861B00607D55FEA0A7004D5286840
:1005B0000761284600F056F9F00606D5286800695C
:1005C000800702D0284600F04EF9B00308D55FEA54
:1005D000C96005D5296810204860284600F044F914
:1005E000F00307D55FEA097004D5286847602846FC
:1005F00000F041F9300446D55FEA497040D5F00576
:1006000004D55FEAC87001D044F00104B00504D5F8
:100610005FEA887001D544F00204700504D55FEAF2
:10062000487001D544F00404300529D518F0700F46
:1006300026D008F07000402815D006DC102809D01C
:1006400020280AD0302816D10AE050280ED0602881
:1006500011D10EE044F008040DE044F010040AE06B
:1006600044F0200407E044F0400404E044F0800437
:1006700001E044F480742868816921F0700181618F
:10068000296804204860002C05D0686A204368620D
:100690002846FFF703FFBDE8F09F70B5040003D0C4
:1006A00094F8200010B104E0012070BD204600F055
:1006B00081F82068016841F00101016000F0EAF969
:1006C0000546052604E000F0E5F9401B0A2811D88C
:1006D00020684068C007F6D02068016821F0020158
:1006E000016000F0D7F905460BE000F0D3F9401B9C
:1006F0000A2806D9606A40F40030606284F82060FD
:10070000D2E7206840688007EFD4207E0128206867
:1007100001683DD021F080010160607E01282068E1
:10072000016838D021F040010160A07E01282068D6
:10073000016833D021F020010160E07E01282068AB
:1007400001682ED041F010010160207F012820684F
:10075000016829D021F008010160607F012820682C
:10076000016824D021F004010160D4E902010843AA
:10077000D4E90412114308436168491E0843216803
:10078000C86100206062012084F82000002070BD54
:1007900041F08001C0E741F04001C5E741F0200190
:1007A000CAE721F01001CFE741F00801D4E741F09A
:1007B0000401D9E710B586B00021009101910291A2
:1007C000039100682349884242D12348C16941F01E
:1007D0000071C161C16901F000710491816941F04A
:1007E0000401816180691D4C00F0040004904FF405
:1007F000006000906946204600F050F8A014009078
:1008000002200190032003906946204600F046F83C
:1008100000221146132000F0B1F9132000F0A0F9D6
:1008200000221146142000F0A9F9142000F098F9D4
:1008300000221146152000F0A1F9152000F090F9D2
:1008400000221146162000F099F9162000F088F9D0
:1008500006B010BD006400400010024000080140D6
:1008600070477047704770477047704770477047D0
:10087000704770477047704770B5044600F00AF93A
:100880000546601C02D004480078044400F002F9D8
:10089000401BA042FAD370BD140000202DE9F84F90
:1008A000DFF8C8910024A9F1040B23460F2709F1B2
:1008B000040AABF1040ED1E00125A54006EA0502C9
:1008C000AA4276D1DFF8A8C14E68A6EB0C086645AF
:1008D0002BD00DDC032E34D005DC36B3012E19D01D
:1008E000022E2FD11BE0112E16D0122E2AD119E084
:1008F000B8F5881F19D006DCB8F5803F15D0B8F5DB
:10090000801F1FD111E0B8F5001F0ED0B8F5041FED
:1009100018D10AE0CB6815E0CB681B1D12E0CB684C
:1009200008330FE0CB680C330CE08B682BB1012B44
:100930004FF0080303D0456104E0042302E00561A1
:1009400000E00023FF2A01D8064601E000F104067A
:100950004FEA840501D9A5F12005D6F8008007FAF1
:1009600005FC28EA0C0803FA05F548EA0508C6F86C
:1009700000804D68ED0070D53E4DAE6946F0010631
:10098000AE61AD6924F0030605F0010500953A4D0E
:1009900006EB050CDCF80850A607360F07FA06F838
:1009A00025EA0805DFF8D480404503D14FF0000860
:1009B00025E052E0DFF8C880404502D14FF0010841
:1009C0001DE0DFF8C080404502D14FF0020816E07C
:1009D000DFF8B480404502D14FF003080FE0DFF8A4
:1009E000AC80404502D14FF0040808E0DFF8A08059
:1009F000404502D14FF0050801E04FF0060808FA23
:100A000006F848EA0508CCF808804D68D9F8006077
:100A1000ED024D4601D5164300E096432E604D6829
:100A2000DAF80060AD02554601D5164300E0964362
:100A30002E604D68DBF80060AD035D4601D51643BE
:100A400000E096432E604D68DEF80060ED037546C9
:100A500001D5164300E096432E60641C0A681646D2
:100A6000E2407FF429AFBDE8F88F000008040140A0
:100A70000000111000100240000001400008014079
:100A8000000C01400010014000140140001801401A
:100A9000001C0140014880687047000014000020DD
:100AA0000248816802781144816070471400002078
:100AB000074810B5016841F010010160032000F003
:100AC0007DF80F2000F006F800F024F8002010BD9B
:100AD0000020024070B50D4D04464FF47A7128781D
:100AE000B1FBF0F00A490968B1FBF0F000F0C4FA7C
:100AF00048B9102C07D200222146501E00F03EF8C3
:100B000000206C6070BD012070BD0000140000204A
:100B100020000020104808B5816941F00101816181
:100B2000816901F001010091C16941F08051C16109
:100B3000C069002200F0805000901146052000F0AE
:100B40001DF8052000F00CF80448416821F0E06130
:100B500041F00071416008BD0010024000000140FA
:100B6000002809DB00F01F020121914040098000AC
:100B700000F1E020C0F8001170470000F0B40E4B07
:100B80001B680C46C3F30223C3F10705042D00D9EB
:100B90000425191D072901D2002300E0DB1E0126D0
:100BA00006FA05F1491E214099409E40761E1640E6
:100BB0003143F0BC01F018B90CED00E0064900F03B
:100BC000070208684FF6FF03184040EA0220034A74
:100BD00010430860704700000CED00E00000FA05CB
:100BE0002DE9F0470F46050061D0434E306800F014
:100BF0000700B84209D2306820F00700384330605F
:100C0000306800F00700B84251D128683B4C81079A
:100C100012D5400703D5606840F4E0606060287832
:100C2000000703D5606840F4605060606068A968A0
:100C300020F0F000084360602878C00728D068687A
:100C4000012810D02168022810D0890700292EDA47
:100C5000616821F0030101436160FFF71BFF8046DB
:100C600041F288390DE021688903EFE78901EDE75A
:100C7000FFF710FFA0EB0801494502D90320BDE8AA
:100C8000F0876068696800F00C00B0EB810FEFD16D
:100C9000306800F00700B8420BD9306820F0070038
:100CA00038433060306800F00700B84201D00120BE
:100CB000E5E72878400705D56068E96820F4E0603A
:100CC000084360602878000706D56068296920F429
:100CD000605040EAC100606000F018F86168084A9E
:100CE000C1F30311515CC84006490860064800681A
:100CF000FFF7F0FE0020C2E7002002400010024093
:100D00008831000820000020180000200E4A516899
:100D10000E4801F00C03042B11D0082B0FD10C4806
:100D2000C1F38343C903C05C0AD55168084AC1F3C3
:100D30004041921E515C054A5043B0FBF1F07047B0
:100D400004494843704700000010024000127A0036
:100D50007831000800093D002DE9F84F040070D0FB
:100D60002078C04DC00749D06868C0F381000128D1
:100D700007D06868C0F38100022809D16868C00301
:100D800006D52868800339D560680028E7D035E0AB
:100D90006068B0F5803F0BD010B1B0F5A02F11D036
:100DA000286820F480302860286820F4802002E041
:100DB000286840F480302860606890B1FFF76AFED0
:100DC00006460AE0286840F480202860F0E700BF6B
:100DD000FFF760FE801B642873D828688003F7D56E
:100DE0000CE0FFF757FE064605E000BFFFF752FE96
:100DF000801B6428F0D828688003F7D420789A4EA6
:100E000080074FF001094FF0000839D5686810F0ED
:100E10000C0F07D06868C0F38100022809D1686808
:100E2000C00306D42868800714D52069012808D19A
:100E300010E02069B0B1C6F80090FFF72BFE07461E
:100E400005E00AE1FFF726FEC01B0228C4D8286887
:100E50008007F7D52868616920F0F80040EAC100F2
:100E600028600DE0C6F80080FFF714FE074604E096
:100E7000FFF710FEC01B022823D828688007F7D48C
:100E8000207800072CD57948A169D9B1C0F8009025
:100E9000FFF700FE074604E0FFF7FCFDC01B022839
:100EA0000FD8686A8007F7D571484FF4FA51006887
:100EB000B0FBF1F0009000BF0098411E0091FAD203
:100EC0000EE080E0C0F80080FFF7E4FD074604E094
:100ED000FFF7E0FDC01B022875D8686A8007F7D4C9
:100EE0002078400760D5E8690027C00008D4E86989
:100EF00040F08050E861E869012700F080500090E0
:100F00005C480168C90513D40168834641F48071C7
:100F10000160FFF7BFFD824606E000BFFFF7BAFDA4
:100F2000A0EB0A0064284ED8DBF80000C005F5D518
:100F3000E06801280AD008B1052813D0286A20F0FB
:100F400001002862286A20F0040002E0286A40F0CC
:100F500001002862E06841F2883B98B1FFF79AFDF2
:100F600082460BE0286A40F004002862EEE700BFEA
:100F7000FFF790FDA0EB0A0159455AD8286A80076F
:100F8000F6D50CE0FFF786FD824605E0FFF782FD0F
:100F9000A0EB0A0159454CD8286A8007F6D41FB146
:100FA000E86920F08050E861E06988B36968C1F3BE
:100FB0008101022944D00228C6F8608004D0FFF7DE
:100FC00069FD044638E034E0FFF764FD074604E0BD
:100FD000FFF760FDC01B02282BD828688001F7D4DA
:100FE000206AB0F5803F05D16868A16820F4003020
:100FF00008436860D4E908010843696821F4741162
:1010000008436860C6F86090FFF744FD044606E0B8
:1010100025E000BFFFF73EFD001B022809D8286825
:101020008001F7D51BE000BFFFF734FD001B02284D
:1010300002D90320BDE8F88F28688001F4D40EE0BF
:101040000128F7D06868226A00F48031914204D107
:10105000616A00F47010884201D00120EAE70020A4
:10106000E8E70000001002400000424280044242D3
:10107000200000200070004010B5401EB0F1807FBD
:1010800001D3012010BD4FF0E02460610F216017F3
:1010900000F0AAFE0020A06107202061002010BD02
:1010A0007047704710B590F83C20012A22D00122E9
:1010B00080F83C20CA688C6822F4407222434C6855
:1010C00022F4806222430C6822F4006222430C69FD
:1010D00022F4805222434C6922F400522243C9690F
:1010E000002322F480420A4301684A6480F83C30BD
:1010F000002010BD022010BD70B590F83C20012AE0
:101100002CD0012480F83C40022280F83D20036866
:101110005A689D6822F070060A6832435A60104B84
:1011200002689A420ED00F4B9A420BD0B2F1804F18
:1011300008D00D4B9A4205D00C4B9A4202D00C4B72
:101140009A4204D1496825F080031943916080F8E0
:101150003D40002180F83C10084670BD022070BD63
:10116000002C014000340140000400400008004011
:10117000000C004010B5040003D094F83D0010B1FD
:1011800007E0012010BD002084F83C00204600F05C
:101190001FF8022084F83D00211D206800F0BEFCED
:1011A000012084F8460084F83E0084F83F0084F86B
:1011B000400084F8410084F8420084F8430084F839
:1011C000440084F8450084F83D00002010BD000074
:1011D00008B500680B49884212D10B48C16941F03B
:1011E0000201C161C069002200F0020000901146B6
:1011F0001D20FFF7C3FCBDE808401D20FFF7B0BC71
:1012000008BD0000000400400010024070B5044614
:1012100090F83C000025012817D0012684F83C6096
:10122000022084F83D002068826822F0770222F4D0
:101230007F4282600868502838D00DDC20284FD0CB
:1012400005DC90B3102811D14AE0022070BD30288F
:1012500046D040280AD13BE060282FD070280DD01E
:10126000B0F5805F03D0B0F5005F12D0012584F89F
:101270003D60002084F83C00284670BDCB68D1E971
:101280000121206800F098FC2068816841F0770116
:1012900009E0CB68D1E90121206800F08DFC2068CD
:1012A000816841F480418160E1E719E0CA684968DA
:1012B000206800F055FD5021206806E0CA684968A2
:1012C000206800F05EFD6021206800F07FFCCEE722
:1012D000CA684968206800F043FD40212068F4E7AF
:1012E000226801461046F0E770472DE9F0410446B8
:1012F0000068C66805694FF00007A90713D5B10754
:1013000011D5F91E016101202077206880698007CE
:10131000204602D0FFF7E8FF04E000F0A5F82046E1
:1013200000F06CF92777680716D5700714D5216887
:101330006FF004000861022020772068806910F4B3
:10134000407F204602D0FFF7CFFF04E000F08CF88A
:10135000204600F053F92777280715D5300713D515
:1013600021686FF008000861042020772068C069B8
:101370008007204602D0FFF7B7FF04E000F074F8C2
:10138000204600F03BF92777E80616D5F00614D57D
:1013900021686FF010000861082020772068C0697C
:1013A00010F4407F204602D0FFF79EFF04E000F0DB
:1013B0005BF8204600F022F92777E80708D0F0070D
:1013C00006D021686FF001000861204600F017F98F
:1013D000280608D5300606D521686FF08000086120
:1013E0002046FFF75DFE680608D5700606D5216821
:1013F0006FF040000861204600F002F9A8060AD507
:10140000B00608D521686FF0200008612046BDE8CD
:10141000F041FFF746BEBDE8F081000000B585B0A1
:101420000021009101910291039100680B498842CB
:1014300012D10B48816941F00401816180696946DC
:1014400000F0040004904FF44070009002200190DE
:1014500003900448FFF722FA05B000BD002C0140BC
:101460000010024000080140704770B5044690F833
:101470003C0000260D4601280FD0012084F83C00D6
:101480006AB1042A1DD0082A2FD00C2A3FD0012689
:10149000002084F83C00304670BD022070BD2068FA
:1014A00000F09CFB2068816941F00801816120689F
:1014B000816921F004018161206881692A691143F1
:1014C00011E0206800F0BAFB2068816941F40061F6
:1014D00081612068816921F480618161206881696E
:1014E0002A6941EA02218161D2E7206800F0DCFB31
:1014F0002068C16941F00801C1612068C16921F01B
:101500000401C1612068C1692A69114311E02068A2
:1015100000F0FEFB2068C16941F40061C1612068F0
:10152000C16921F48061C1612068C1692A6941EA09
:101530000221C161ACE710B5040003D094F83D006E
:1015400010B107E0012010BD002084F83C002046C7
:1015500000F01EF8022084F83D00211D206800F0F4
:10156000DDFA012084F8460084F83E0084F83F004C
:1015700084F8400084F8410084F8420084F8430075
:1015800084F8440084F8450084F83D00002010BD34
:1015900008B50068174988422AD11748816941F483
:1015A000006181618069002200F4006000901146B2
:1015B0001820FFF7E3FA1820FFF7D2FA00221146AD
:1015C0001920FFF7DBFA1920FFF7CAFA00221146AB
:1015D0001A20FFF7D3FA1A20FFF7C2FA00221146A9
:1015E0001B20FFF7CBFABDE808401B20FFF7B8BA75
:1015F00008BD0000002C01400010024070477047F9
:101600007047FEE70D4810B50B490160102141609D
:1016100000218160C160016141610176417681767E
:10162000C17601774177FFF738F8002803D0BDE88D
:101630001040FEF7DCBE10BD00640040DC0000205E
:10164000094808B5816941F020018161816901F093
:1016500020010091816941F004018161806900F0FD
:101660000400009008BD00000010024010B592B0C8
:1016700000240F941C2168461094FEF701FE2021DF
:1016800007A8FEF7FDFD2548234901604721C0E971
:10169000011444F61F61C0E903148021C0E905412B
:1016A000FFF749FF08B1FEF7A2FE0F940FA91B48F0
:1016B0001094FFF721FD08B1FEF799FE6020CDE9F7
:1016C000000402940394049405940022694613488C
:1016D0000694FFF7CAFE08B1FEF789FE04226946A8
:1016E0000E48FFF7C2FE08B1FEF781FE079408948A
:1016F00009944FF400500A94CDE90B4007A907481C
:101700000E94FFF7CFFC08B1FEF771FE0348FFF718
:1017100085FE12B010BD0000002C01400401002025
:1017200010B586B0002417480094019402940394E5
:10173000049413490594016041F61F41C0E9011466
:1017400040F2CF71C0E903148461FFF713FD08B1C3
:10175000FEF74DFE4FF48050009069460948FFF7B0
:1017600055FD08B1FEF743FE049404A9054805940D
:10177000FFF7C2FC002801D0FEF739FE06B010BD0D
:10178000000400404C010020FEE700000C494163CA
:101790000C4981630C49C1630C4901640C494164E3
:1017A0000C4981644FF07C51C1640B4901630021F5
:1017B00041608160C1608161C16101627047000068
:1017C0001283403D8FC2F53C2DB23D3FFE65373F51
:1017D0006666E63F2766BD3B0000C0412DE9F04745
:1017E000056B0E46044685F0004791463946304663
:1017F00001F0BAF901D23D4605E02946304601F034
:10180000B3FA00D335466768606C394601F0E0F9F9
:10181000A66880463146206C01F0DAF9294601F0CD
:1018200005FB414601F094FBA16C01F093F82061A7
:10183000A16901F01BF8494601F0CAF94FF0FF35E4
:10184000294601F05AFC394601F010F80146606063
:101850004C4A26F0004090420ADAE06B01F0B8F9F9
:1018600020F00040E16C01F07FF901D200201AE085
:10187000A66816F1FF4F02D24FF07E5000E04248BA
:10188000E16C01F0A5F907463146A06B01F0A0F923
:1018900006466168E06B01F09BF9314601F058FBA8
:1018A000394601F055FB6061616B01F053F86061EE
:1018B0000646E16900F0DAFF494601F089F92F4652
:1018C000294601F01AFCA16800F0D0FFA06005468F
:1018D000216A00F0CBFF494601F07AF9394601F060
:1018E0000CFCE16800F0C2FFE06020692562C4E9F9
:1018F0000606FEF77FFD254901F06AF9616800F0F0
:10190000B5FF234E314601F025F80D2101F0F5FB1E
:1019100000F0FEFB01F0FCF86FF00C05294601F029
:10192000ECFB314601F054F91A4E60623146E06832
:1019300001F010F80D2101F0E0FB00F0E9FB01F0EF
:10194000E7F8294601F0D9FB314601F041F9E16A97
:1019500001F0FEFA494600F0FDFFA0623146E06862
:1019600000F0F8FF0D2101F0C8FB00F0D1FB01F001
:10197000CFF8294601F0C1FB314601F029F9E062B8
:10198000BDE8F0876F12033B000080BF9A99993E33
:1019900056555541DA0FC940FEE700002DE9F041E8
:1019A000184C88460168606901F0D2FA0546414644
:1019B000A06101F00DF9216800F058FF2060E66990
:1019C00007463146284601F0C3FA414600F0C2FFFF
:1019D0006060C4E907560146206901F0F9F806463F
:1019E0003946E06801F0F4F807462946A06801F09E
:1019F000EFF8394600F03AFF314600F037FF6062F9
:101A0000BDE8F081640000202DE9F041184C8846C3
:101A10000168606901F09CFA05464146A06101F049
:101A2000D7F8216800F022FF2060E66907463146BA
:101A3000284601F08DFA414600F08CFF6060C4E951
:101A400007560146206901F0C3F806463946E068AA
:101A500001F0BEF807462946A06801F0B9F83946FA
:101A600000F004FF314600F001FF6062BDE8F08144
:101A70003C000020704770477047FFF711B830B541
:101A80008FB028216846FEF7FBFB14210AA8FEF759
:101A9000F7FB01210804CDE900100024029402257F
:101AA0000491CDE907504FF4E01009906846FFF724
:101AB00053F908B172B6FEE70F20CDE90A054FF4DD
:101AC0008060CDE90C4002210AA80E94FFF788F847
:101AD000002801D072B6FEE70FB030BD704700009D
:101AE0000148FFF702BC0000040100200148FFF795
:101AF000FCBB0000040100200148FFF7F6BB00001A
:101B0000040100200148FFF7F0BB000004010020A1
:101B10000148FFF7EABB00004C010020F0B5026865
:101B2000204C214D214E224F224B4FF0804CA042A1
:101B300009D0984207D0604505D0A84203D0B042F2
:101B400001D0B84204D122F0700E4A6842EA0E0277
:101B5000A04209D0984207D0604505D0A84203D0E2
:101B6000B04201D0B84203D122F44075CA682A437A
:101B70004D6922F080022A4302608A68C2620A68C4
:101B80008262A04201D0984201D10969016301211A
:101B900041610169C90703D0016921F001010161B7
:101BA000F0BD0000002C014000040040000800408F
:101BB000000C00400034014010B5846842EA032262
:101BC00024F47F440A432243826010BD826822F0DD
:101BD00070020A4342F0070181607047F0B5036A62
:101BE000026A22F00102026242688469124E24F005
:101BF00073050C682C4323F002058B682B430D4DB5
:101C0000A84201D0B04205D123F00807CB683B437E
:101C100023F00403A84201D0B04205D14D6922F45B
:101C2000407215438A692A4342608461496841636E
:101C30000362F0BD002C014000340140F0B5026A9F
:101C4000036A23F010030362436884690D6824F477
:101C5000E64444EA05248D6822F0200242EA051297
:101C60000F4D104EA84201D0B04206D1CF6822F0ED
:101C7000800242EA071222F04002A84201D0B0429C
:101C800007D14D6923F4406343EA85038D6943EA34
:101C9000850343608461496881630262F0BD00008E
:101CA000002C014000340140F0B5026A036A23F4BD
:101CB000807303624368C46922F4007224F07305E0
:101CC0000C68124E2C438D6842EA05220E4DA84244
:101CD00001D0B04206D1CF6822F4006242EA072266
:101CE00022F48062A84201D0B04207D14D6923F4AA
:101CF000405343EA05138D6943EA05134360C46109
:101D00004968C1630262F0BD002C0140003401400B
:101D100030B5046A026A22F4805202624268C369E2
:101D20000D6823F4E64343EA05238D6824F4005448
:101D300044EA0534084DA84202D0084DA84204D117
:101D40004D6922F4804242EA85124260C3614968CB
:101D50000164046230BD0000002C014000340140E9
:101D600010B5036A046A24F001040462846924F053
:101D7000F00444EA021423F00A020A438461026276
:101D800010BD10B5036A046A24F01004046284696B
:101D900023F0A00324F4704444EA023243EA011120
:101DA0008261016210BD00000148FEF778BB0000AF
:101DB000DC0000200148FEF772BB0000DC000020C0
:101DC000FEE74100080218BF04200A0E18BF40F0C9
:101DD00001004FF07F4232EA010108BF40F00200EB
:101DE000012808BF052070470907090E002804DBF9
:101DF00000F1E02080F80014704700F00F0000F1BF
:101E0000E02080F8141D704700214FF07E5000F054
:101E1000A1BD012101F071B90021084600F09ABD71
:101E20006FF05E01080701F068B900002DE9F04D80
:101E30000D4614464FF07F41B1EB440F9EBF4FF06B
:101E4000FF312960BDE8F08D4FF0004040EA0421E9
:101E5000C4F3C750783810F01F024A4B4FEA601C99
:101E6000C2F120067B44C4F3C750A0F178004FEACA
:101E7000601003EB800053F82C3008BFD0E901C696
:101E800012D0D0F804C093402CFA06F73B43876881
:101E90000CFA02FC27FA06F8C06807FA02F2F040D2
:101EA0004CEA080C42EA0006A3FB0132ACFB01C07D
:101EB000A6FB016101EB0C068E4234BF4FF0010C12
:101EC0004FF0000CC1186144BCF1000F02D08142F8
:101ED00002D903E0814201D2012000E00020104439
:101EE00000F120024FEA92188006CA0C40EA423004
:101EF0004F03C5F8008000F00BFE8246384600F024
:101F00001FFE6FF0120101F0F8F80746304600F0AE
:101F100017FE6FF0250101F0F0F883463946504670
:101F200000F0A4FC594600F0A1FC00F500666FF338
:101F30000B065146304601F00BF8394601F008F81F
:101F4000594600F073FF104900F042FE07460F4962
:101F5000304600F03DFE394600F088FC07460C494B
:101F6000304600F035FE394600F080FC14F0004F9A
:101F700008BFBDE8F08DC8F1805180F000402960B5
:101F8000BDE8F08D70130000DB0FC92F22AAFD29D8
:101F90000000C92F2DE9F843044602464F48694620
:101FA000B0EB420F09D94FF0E640B0EB420F94BFBF
:101FB00000204FF0FF30009030E0494B22F000400D
:101FC000834271D94749204600F002FE00F0FEFE30
:101FD000804600F081FD00F0030000904249404639
:101FE00000F0F6FD05464149404600F0F1FD064689
:101FF0003F49404600F0ECFD07463E49404600F0B0
:10200000E7FD214600F012FF394600F0A1FF3146FE
:1020100000F09EFF294600F09BFF04462546009CE9
:10202000002C45DB294614F0010F08461CD000F0B7
:10203000CFFD0646304900F0CBFD304900F0F6FEFA
:10204000314600F0C5FD2E4900F010FC314600F08D
:10205000BFFD294600F0BCFD294600F007FC14F046
:10206000020F1CD0BDE8F88300F0B2FD05462549FB
:1020700000F0AEFD244900F0F9FB294600F0A8FD70
:10208000224900F0F3FB294600F0A2FD4FF07E51FB
:1020900000F0ECFB14F0020F08BFBDE8F88380F0FD
:1020A0000040BDE8F883FFE71046FFF7BFFEB4E746
:1020B0006800B0F17F4F3CBF4FF07E50BDE8F88321
:1020C00007D14FF00100FEF70AF9BDE8F843FFF72A
:1020D000A3BE2846BDE8F843FFF79BBEB61F927E1D
:1020E000490E494683F9223F1A61342C0020A2335D
:1020F00000A0FD390000C93F336D4C39DA82083C3D
:10210000A0AA2ABEB93AB2BACA9F2A3DDDFFFFBED5
:1021100070B5054600F0E0FC044600F0F9FC2946E5
:1021200000F084FEB0F17C5F00DD641C204670BDD1
:102130002DE9F0410026A0F50001B1F1FE4F7DD25E
:1021400000F500226FF07E0101EBE251C2F3025470
:1021500077184FF07E52A0EBC15602EB045557EAB8
:10216000040047D02946304600F080FB80462946CF
:10217000304600F0EDFE414600F0ECFB054601461E
:1021800000F026FD8046454900F022FD444900F05C
:102190006DFB06464146284600F01AFD314600F028
:1021A00017FD0646384600F0B3FC07463D4900F0EF
:1021B0000FFD3D49794451F8241000F057FB31469A
:1021C00000F054FB06460121284600F096FF3146F8
:1021D00000F04CFB05463846344900F0F9FC344920
:1021E000794451F8241000F041FB2946BDE8F04144
:1021F00000F03CBB4FF07E51304600F0A9FE054692
:102200002C4900F0E5FC2C4900F030FB294600F099
:10221000DFFC2A4900F02AFB294600F0D9FC6FF0C8
:10222000824100F023FB04462946084600F0D0FC1A
:10223000214600F0CDFC0146284600E003E0BDE861
:10224000F04100F013BB4FF07F42B2EB400F03D2DE
:10225000BDE8F041FFF7DDBDB0F1FF4F08BFBDE8BD
:10226000F081B0F1004F06D90120FEF738F8BDE843
:10227000F041FFF7D1BD30F0004105D06FF01606F8
:10228000172100F03AFF5BE70220FEF728F8FFF77E
:10229000BBFD80F00040BDE8F081000066F1CC3E5F
:1022A000AAAA2A3FF4FD0538001000000070313F53
:1022B000B40F000021ED423E0A1180BEC1ABAA3E20
:1022C000FEF7F6FBFFF7DBFBFFF7BAF9FFF79AF92A
:1022D000FFF7CCF9FFF724FA4820FEF76DF8214804
:1022E000FFF754FA1F48503800F054F81D482838BA
:1022F00000F03CF81B4D1C4C4FF07E564FF08047D1
:1023000019481030FEF73EF801466060206800F082
:10231000ADFA20601348FEF7BDF868601148FEF77B
:10232000BBF8A8600F48FEF7B3F8E860E068B04279
:1023300005D10C4861682830FFF766FBA060E068B3
:10234000B84205D1074861682C30FFF727FBA06031
:10235000D4E901210348FFF741FA0120FEF78CFA86
:10236000CEE700008C000020000000200021074A7A
:102370000160C0E901124FF08042C0E90312044A33
:10238000C0E90521C1610162416270470000E03F80
:10239000DB0FC9400021084A0160C0E901121202A6
:1023A000C2604FF07E520261044AC0E90521C1615A
:1023B000016241627047000000004040000020417F
:1023C0002DE9F8430446024652486946B0EB420FF5
:1023D00009D94FF0E640B0EB420F94BF00204FF018
:1023E000FF30009030E04C4B22F00040834271D926
:1023F0004A49204600F0ECFB00F0E8FC804600F083
:102400006BFB00F0030000904549404600F0E0FB04
:1024100005464449404600F0DBFB0646424940463B
:1024200000F0D6FB07464149404600F0D1FB21466B
:1024300000F0FCFC394600F08BFD314600F088FDD1
:10244000294600F085FD04462546009C002C45DB0E
:10245000294614F0010F08461ED000F0B9FB0546CE
:10246000334900F0B5FB334900F000FA294600F08B
:10247000AFFB314900F0FAF9294600F0A9FB4FF013
:102480007E5100F0F3F914F0020F08BFBDE8F883A5
:1024900080F00040BDE8F88300F09AFB064627492B
:1024A00000F096FB264900F0C1FC314600F090FB9D
:1024B000244900F0DBF9314600F08AFB294600F0A0
:1024C00087FB294600F0D2F914F0020FE0D1BDE8F5
:1024D000F883FFE71046FFF7A9FCB4E76800B0F106
:1024E0007F4F09D22846FFF76CFC042808BFFFF78E
:1024F00097FC2846BDE8F88306D10120FDF7EFFEE2
:10250000BDE8F843FFF788BC2846BDE8F843FFF76D
:1025100080BC0000B61F927E490E494683F9223FD7
:102520001A61342C0020A23300A0FD390000C93FFD
:10253000B93AB2BACA9F2A3DDDFFFFBE336D4C39AE
:10254000DA82083CA0AA2ABE70B5054600F078FCE5
:10255000044620F00040C0F1FF40C00F08D025F035
:102560000040C0F1FF40C00F04BF0120FDF7B7FEDF
:10257000204670BD21F00042A2F16052B2F5801FEA
:1025800001F0004328BFD2F17F6C0BD95FEA001C39
:1025900043EAC20242EB507018BF704728BF20F0D8
:1025A00001007047B2F5801FBCBF184670474FEA64
:1025B000410C1CF5001F02D2084600F0D0BB70B5DC
:1025C00000F0D4F800000089FFF7F6BF4FF000409C
:1025D000A0F580007047000002494FF0000000F0B5
:1025E0002CBD00BF0000F87F10F0004248BF404201
:1025F000B0FA80F310FA03F10AD0C3F11D0303F51A
:1026000080634FEA415002EB035202EBD121704745
:102610004FF0000070470000DFF848C170B51CEAB9
:10262000111E1EBF1CEA13159EEA0C0F95EA0C0F33
:1026300000F06F8081EA030423EA4C134EEAD47E53
:1026400021EA4C1141F4801143F48013AE44A1FB04
:10265000024CA0FB0365AEF17F7E361955EB0C05ED
:10266000A1FB034C4CF10003A0FB021C16EB0C0673
:10267000654153F10003094218BF46F0010613F407
:10268000007F0BD14FEA03314FEA0530340341EAB2
:10269000155140EA16506FF003020AE04FEAC321D9
:1026A0004FEAC520F40241EA555140EA56506FF016
:1026B000020202EB2E4201EB025585EACE710AD0EE
:1026C0005FEA440C18BF24F0004450F1000041F1CF
:1026D000000120EAD47040F2FE7C624500D270BD59
:1026E000A84214BF4FF080444FF04044002E08BF72
:1026F0000024BEF1806FA8BFA1F1C041BDE87040C9
:1027000080F282804FF0000001F1C04101F00041F1
:1027100070479EEA0C0F0CEA131518BF95EA0C0FD0
:1027200006D04FF0000081EA030E0EF0004170BDAC
:1027300000F01CF88900013E00F007B800F009B86D
:102740004FEA430C5FEA5C5C08D081EA030100F0C9
:102750005BB84FEA410C5FEA5C5CF6D14FF00000D9
:10276000014970470000FF070000F87F0EF1020EDC
:102770002EF0030E5EF8046B364205D4012A43EBBB
:10278000030515F5001F12D8012841EB010C1CF5BB
:10279000001F0CD80ED14FEAD17C15F5001F0CEBB1
:1027A0004C0C0CF1020C08BF4CEBD37C04E04FF056
:1027B000080C01E04FEAD37C0CEB4C0526FA05F639
:1027C00006F00706B6F1040C06D20EEB860CBDE847
:1027D00070404CF0010C6047DFE80CF0090B02027E
:1027E0004FF000414FF00000A1F5002170BD1946E7
:1027F0001046012851EB010418BFD4F5001484BF22
:10280000002001F0004170BD0808A0F500114FEA5A
:102810003101704743004FEAD30C4FEA3C0C434070
:102820001FBF40070CF1605113F0FE4F70471CF0C2
:10283000006F03D100200CF0004170470CF0004302
:1028400043EA507010B540EACC0000F042FA00BFF5
:10285000000000924FEA0001FFF7D6BF4FF00041A1
:102860004FF00000A1F500217047000090EA010F31
:1028700048BF81F0004100F17283421A3CBF801AC8
:1028800089184FEAD0524FF07F4C1CEA410FA2EB5F
:10289000D15318BF9CEA026F00F03B804FF0004C10
:1028A0004CEA00204CEA012121FA03FC10EB0C0C4D
:1028B0001ED202F1FF325FEA1C2040EBC25038BF4B
:1028C00070471CF07F0F4FEA400C18BFBCF17F4FE0
:1028D00038BF7047C3F12003994008BF20F00100C2
:1028E000BCF17F4F38BF7047A0F1C04000F037BA4D
:1028F0004FEA3C00000A40EBC25028BF1CF0FF0F1B
:102900004FEA400CE6D018BFBCF17F4F38BF70478C
:10291000EAE79CEA026F05D010EA5C0F08BF00F0FE
:102920000040704710B500F0D4F900BF64FBBE3E14
:10293000014800F082BB00BF0000C07F401058BFBC
:10294000C0F14040491058BFC1F140418142EFF30E
:10295000008070474FF47F0C1CEAD0121EBF1CEAA7
:10296000D11392EA0C0F93EA0C0F00F0858090EAE5
:10297000010F48BF42F4807240F4000C41F40000A3
:102980002CF07F4120F07F4000B58142A2EB030292
:102990000FF2081CACEB504EC0F100009EF800E0B6
:1029A0004FEA4E0E00FB0EFC38BF49004FEA2C1CCC
:1029B00002F5FA020CFB0EF34FEACE1E4FEA112C81
:1029C0004FEAC1210EEB635E42EB22420EFB0CFC90
:1029D0004FEA1C5300FB03114FEA112C4FEA01315F
:1029E0000EFB0CFC4FEADC4C00FB0C11C14228BF73
:1029F00009184CEB03335DF804EB10EB410143EB9A
:102A0000C250B2F57C0F38BF704729D512F0F00FD5
:102A10001CBF00F1C04000F000407047008182837D
:102A20008485868788898B8C8D8E8F9192939596DD
:102A300097999A9C9D9FA0A2A3A5A7A8AAACAEB067
:102A4000B2B3B5B7B9BCBEC0C2C5C7C9CCCED1D46C
:102A5000D7D9DCDFE2E6E9ECF0F3F7FAFE0000009C
:102A60004FEA400C0CF1807CBCF17E4F28BF7047D0
:102A7000B0F1C04000F073B990EA010F0CEAD11335
:102A800048BF42F48072624538BF634507D213F4F1
:102A90007F0F16D080EA010000F00040704710B5AB
:102AA00000F017F9097EFC3E00F005B880EA01004D
:102AB00000F00040704780EA010000F0004000F0A4
:102AC0004EB912F47F0F04BF0248704780EA01003C
:102AD00000F045B90000C07F41000B0ED3F19E020B
:102AE00008D950F400034FEA032323FA02F048BF49
:102AF0004042704710B500F0ECF800BF49922480C6
:102B0000002070476FF0004282EA2000704700000A
:102B100010F0004148BF4042B0FA80F310FA03F2CF
:102B2000C3F19D030BD051EAC35101EB12205306B0
:102B300038BF704700F1010008BF20F00100704766
:102B4000B0FA80F310FA03F2C3F19D030AD0D9055D
:102B500001EB1220530638BF704700F1010008BF97
:102B600020F001007047000050EA010C00F11380D2
:102B70001CF5000F58BFBCF5000F01D48842704708
:102B800007D710F5000F58BF11F5000F15D4884274
:102B90007047894270471CF5000F04D5BCF5000F43
:102BA000F7D5814270474FF0807C1CEB400F38BF57
:102BB0001CEB410F01D28142704710B500F089F83B
:102BC000922449004FF000504FF08051FFF7B6BEFD
:102BD0004FF47F0C1CEAD0121EBF1CEAD11392EAFC
:102BE0000C0F93EA0C0F00F0478090EA010F48BFEA
:102BF00042F480724FF0004C4CEA00204CEA012174
:102C000002EB0302A0FB0113A2F50002002918BF8A
:102C100043F001035B0028BF4FEA330342EB22423B
:102C20005FEA132C4CEBC2502EBFBCEB436FB2F5E6
:102C30007C0F70474FEA036CBCF1004F08BF20F0D7
:102C40000100B2F57C0F38BF70470BD582F0FF0250
:102C500012F5803FC8BF704700F1C040D8BF00F0F8
:102C60000040704700F5000C5FEA4C0C48BF70470D
:102C7000B0F1C04000F073B890EA010F0CEAD11334
:102C800048BF42F48072624538BF634504D280EA8F
:102C9000010000F00040704710B500F01AF800BFC6
:102CA0008900013E00F007B800F009B85FEA410C66
:102CB0005FEA1C6C08D080EA010000F050B85FEABF
:102CC000400C5FEA1C6CF6D14FF00040A0F580008C
:102CD00070470EF1020E2EF0030E5EF8044B2442F4
:102CE00004D44FEA4102B2F17F4F11D84FEA4003BA
:102CF000B3F17F4F0CD80ED14FEAD07CB2F17F4FA9
:102D00000CEB4C0C0CF1020C08BF4CEBD17C04E03A
:102D10004FF0080C01E04FEAD17C0CEB4C0324FA95
:102D200003F404F00704B4F1040C06D20EEB840C97
:102D3000BDE810404CF0010C6047DFE80CF00708DC
:102D400002024FF00040A0F5800010BD084642008E
:102D500018BFD2F1807288BF00F0004010BDFF2183
:102D600041EAD050C005704751EA000C00F11380D1
:102D70001CF5000F58BFBCF5000F01D4814270470D
:102D800007D711F5000F58BF10F5000F15D4814279
:102D90007047894270471CF5000F04D5BCF5000F41
:102DA000F7D5884270474FF0807C1CEB410F38BF4D
:102DB0001CEB400F01D28842704780EA010081EA93
:102DC000000180EA0100FFF7F8BE00005FEA400C56
:102DD0005FEA1C6CBCF17F0314D4D3F1170240F3FB
:102DE0001C804FF0010C0CFA02FCACF10103034013
:102DF000B3EB5C0220EA030008BF10EA0C0F88BFA7
:102E000060447047B3F1FF3F28BF5FEA002C00F039
:102E1000004088BF40F07E507047BCF1FF0FB8BF44
:102E2000704710B5FFF755FF40DBB6BE80F000409D
:102E300090EA010F7FF521AD81F0004100F08FB8DD
:102E40004FEAD051002988BFD1F1FF0240F27580CE
:102E500001F17D014FEA002070B5490840F00040C3
:102E600038BF40080EA2430E040CD25C02FB02F3F2
:102E700004FB03F3C3F14043A3FB0254ED0D45EA09
:102E8000442202FB02F3A0FB03546D42C4F1404410
:102E900038BF641EA2FB05350023E2FB0453EA0B96
:102EA00042EA4342A0FB023212F14004A2F12103A4
:102EB000E40903F07F031F2B32D904EBC15070BD2E
:102EC000FEFAF7F3F0ECE9E6E4E1DEDCD9D7D4D2A0
:102ED000D0CECCCAC8C6C4C2C1BFBDBCBAB9B7B6D1
:102EE000B4B3B2B0AFAEACABAAA9A8A7A6A4A3A234
:102EF000A1A09F9E9E9D9C9B9A999897979695942A
:102F00009393929190908F8E8E8D8C8C8B8A8A89E0
:102F1000898887878686858484838382828181806D
:102F200004FB04F6B6EB004603D5E64248BF641C3A
:102F3000C3E7A64258BF641CBFE711F0FF0F02D1E0
:102F400000F00040704710B5FFF7C3FE7FDBFFBE07
:102F500090EA010F48BF81F000413FF58EAC421A64
:102F600004D882F00042A0EB020011444FEAD05294
:102F70004FF07F4C1CEA410FA2EBD15318BF9CEAE3
:102F8000026F4AD04FF0004C4CEA00204CEA01217D
:102F900021FA03FCB0EB0C0C0FD412F0FE0F36D06C
:102FA0005FEA4C001DD5001240EBC25038BF70479D
:102FB0001CF03F0F18BF70470BE0A2F101025FEA5F
:102FC0001C2040EBC25038BF70471CF07F0F18BF69
:102FD0007047C3F12003994014BF401E20F0010048
:102FE000704780084FEA122308BF7047B0FA80FC90
:102FF000A2EB0C02CCF1280C60FA0CF093EA122F31
:1030000004BF00EBC25070474FEAC3707047130A09
:103010005FEADC1008BF7047F6E79CEA026F04D055
:1030200010EA5C0F08BF0020704710B5FFF751FE93
:1030300040DFF63E81F0004070470CF00F03092B93
:1030400008BF082000F07F800A2B0BD0082B18BF88
:10305000704708BF1CF0400F0AD04FF000004FF03F
:10306000000170471CF0400F18BF4FF00040704740
:103070001CF0100F08D020F0704300F07F4242EAAD
:10308000D3014FEA4370704700F0604021F07F4267
:1030900042EA000201F07F4040EA727070474FF050
:1030A000FF0C4CF4E06C1CEA11531CBF9CEA030CAF
:1030B0009445C2BFDA4201EB02517047002B0DD09C
:1030C000BCF1000F0FD0002A01F00041A4BF41F075
:1030D000E04141F07F614FF00000704701F0004196
:1030E0004FF00000704750EA01334FF09B0C18BFBF
:1030F0004CF0806C7FF470AA70474FF0FF0212EA28
:10310000D0521CBF92F0FF038B42C2BFD14200EBF2
:10311000C1507047002A0AD0002B0BD0002900F0C4
:103120000040A4BF40F0FE4040F40000704700F0B3
:103130000040704743024FF00B0C18BF4CF0806CFE
:103140007FF4F6AB70471CF4801F11D01CF4E02F05
:1031500003D06FEACC31490070474FF04050EFF395
:10316000008222F0704242EA000282F30088704737
:103170004FF000007047010202030405060708092A
:103180000A0B0C0D0E0F10100000000000000000D4
:103190000102030406070809000000000030F13DA9
:1031A0000070643E0000A33E0090CF3E0090F83EC9
:1031B00000400F3F00E0203F0000000015B78337BC
:1031C000CDE37B380EE1C53860F69138AF5F0F383C
:1031D000E1BC3E3823F44739000000006E83F9A2B9
:1031E0002915444ED15727FCC0DD34F5999562DB93
:1031F0004190433CAB6351FE1832000800000020B0
:103200003C0000006C010008543200083C00002023
:103210009C08000088010008000000000000000079
:10322000000000000000000000000000010000009D
:10323000100000000000000000127A0000000000F2
:10324000000000000000000000000000000000007E
:04325000000000007A
:0400000508000131BD
:00000001FF
