:020000040800F2
:10000000F008002005020008F10C0008B10A000801
:10001000E10A000869030008B30E000800000000B0
:100020000000000000000000000000004D0E00086D
:10003000D503000800000000490E00084F0E00081C
:100040001F0200081F0200081F0200081F0200080C
:100050001F0200084B0E00081F0200081F020008C4
:100060001F0200081F0200081F0200081F020008EC
:100070001F0200081F0200081F0200081F020008DC
:100080001F0200081F0200081F0200081F020008CC
:100090001F0200081F0200081F0200081F020008BC
:1000A0001F0200081F0200081F0200081F020008AC
:1000B0001F0200081F0200081F0200081F0200089C
:1000C0001F0200081F0200081F0200081F0200088C
:1000D0001F0200081F0200081F0200081F0200087C
:1000E0001F0200081F0200081F0200081F0200086C
:1000F0001F0200081F0200081F0200081F0200085C
:100100001F0200081F0200081F0200081F0200084B
:100110001F0200081F0200081F0200081F0200083B
:100120001F0200081F0200081F0200081F0200082B
:1001300000F002F800F03CF80AA090E8000C8244BD
:100140008344AAF10107DA4501D100F031F8AFF29A
:10015000090EBAE80F0013F0010F18BFFB1A43F0A5
:1001600001031847DC320000FC320000103A24BFC3
:1001700078C878C1FAD8520724BF30C830C144BF0C
:1001800004680C607047000000230024002500264E
:10019000103A28BF78C1FBD8520728BF30C148BFEA
:1001A0000B6070471FB500F062F81FBD10B510BDA1
:1001B00000F0A4F81146FFF7F5FF01F02FFC00F066
:1001C000C2F803B4FFF7F2FF03BC00F0C7F8000069
:1001D0000B49D1F800C04A685CF8043B1068184429
:1001E00042F8040B8C4528BFA1F1DC0C8A4228BFE1
:1001F000A1F1DC02C1F800C04A6020F00040704765
:10020000880200200948804709480047FEE7FEE7CA
:10021000FEE7FEE7FEE7FEE7FEE7FEE7FEE7FEE7B6
:1002200004480549054A064B70470000B10E000816
:1002300031010008F0020020F0080020F004002046
:10024000F00400200B4910B5A1F17C020A4CC2E970
:100250003712372106E000EB104342F82130074BFC
:1002600000FB03400B1EA1F10101F4DC10BD0120D5
:10027000E8E7000028020020E119D666CD0D010054
:100280004FF0000200B5134694469646203922BF2F
:10029000A0E80C50A0E80C50B1F12001BFF4F7AF7A
:1002A000090728BFA0E80C5048BF0CC05DF804EB5C
:1002B000890028BF40F8042B08BF704748BF20F8CA
:1002C000022B11F0804F18BF00F8012B70477047C8
:1002D0007047704710B500F009F8006810BD10B500
:1002E000044600F003F8046010BD000000487047A9
:1002F0009002002000487047900200207546FFF7EA
:10030000F9FFAE4605006946534620F007008546D2
:1003100018B020B5FFF784FFBDE820404FF000067D
:100320004FF000074FF000084FF0000B21F00701DD
:10033000AC46ACE8C009ACE8C009ACE8C009ACE820
:10034000C0098D46704710B50446AFF300802046C3
:10035000BDE81040FFF735BF704700000149182085
:10036000ABBEFEE726000200FEE7000038B50446FB
:100370000948406800900948006802F075FC05468D
:1003800020680099081A02F06FFC294602F076FBFB
:100390000099216038BD0000001000E054000020EA
:1003A00008490A6842F080720A60074900224A60E0
:1003B0000A6842F001020A6004494843044908609F
:1003C00070470000FCED00E0001000E040420F002C
:1003D00054000020704700002DE9F041224C234DCD
:1003E000234E20694FF04048E0B1E06802F0A6FAE1
:1003F0002A46334602F0AEF801F018FE01F078F913
:100400000546A06801F042FA414602F075FC01F091
:10041000F7FD294602F070FC2169C1F1010121615B
:10042000BDE8F081FFF7D4FE02F069F86FF01E0717
:100430003A4602F0C8FE01F0F9FDA060FFF7C8FEE1
:1004400002F05DF83A4602F0BEFE01F0EFFDE0601A
:1004500002F074FA2A46334602F07CF801F0E6FD19
:1004600001F00AFDCCE70000580000204417415479
:10047000FB211940C06A7047406A7047806A704724
:1004800070B5044600F00EF80546601C02D0044822
:100490000078044400F006F8401BA042FAD370BD77
:1004A000440000200148806870470000440000209C
:1004B000024881680278114481607047440000203E
:1004C000074810B5016841F010010160032000F0F9
:1004D0007DF80F2000F006F800F024F8002010BD91
:1004E0000020024070B50D4D04464FF47A71287813
:1004F000B1FBF0F00A490968B1FBF0F000F0C4FA72
:1005000048B9102C07D200222146501E00F03EF8B8
:1005100000206C6070BD012070BD00004400002010
:1005200050000020104808B5816941F00101816147
:10053000816901F001010091C16941F08051C161FF
:10054000C069002200F0805000901146052000F0A4
:100550001DF8052000F00CF80448416821F0E06126
:1005600041F00071416008BD0010024000000140F0
:10057000002809DB00F01F020121914040098000A2
:1005800000F1E020C0F8001170470000F0B40E4BFD
:100590001B680C46C3F30223C3F10705042D00D9E1
:1005A0000425191D072901D2002300E0DB1E0126C6
:1005B00006FA05F1491E214099409E40761E1640DC
:1005C0003143F0BC00F09DBC0CED00E0064900F0AA
:1005D000070208684FF6FF03184040EA0220034A6A
:1005E00010430860704700000CED00E00000FA05C1
:1005F0002DE9F0470F46050061D0434E306800F00A
:100600000700B84209D2306820F007003843306054
:10061000306800F00700B84251D128683B4C810790
:1006200012D5400703D5606840F4E0606060287828
:10063000000703D5606840F4605060606068A96896
:1006400020F0F000084360602878C00728D0686870
:10065000012810D02168022810D0890700292EDA3D
:10066000616821F0030101436160FFF71BFF8046D1
:1006700041F288390DE021688903EFE78901EDE750
:10068000FFF710FFA0EB0801494502D90320BDE8A0
:10069000F0876068696800F00C00B0EB810FEFD163
:1006A000306800F00700B8420BD9306820F007002E
:1006B00038433060306800F00700B84201D00120B4
:1006C000E5E72878400705D56068E96820F4E06030
:1006D000084360602878000706D56068296920F41F
:1006E000605040EAC100606000F018F86168084A94
:1006F000C1F30311515CC840064908600648006810
:10070000FFF7F0FE0020C2E7002002400010024088
:10071000B032000850000020480000200E4A516806
:100720000E4801F00C03042B11D0082B0FD10C48FC
:10073000C1F38343C903C05C0AD55168084AC1F3B9
:100740004041921E515C054A5043B0FBF1F07047A6
:1007500004494843704700000010024000127A002C
:10076000A032000800093D002DE9F84F040070D0C8
:100770002078C04DC00749D06868C0F381000128C7
:1007800007D06868C0F38100022809D16868C003F7
:1007900006D52868800339D560680028E7D035E0A1
:1007A0006068B0F5803F0BD010B1B0F5A02F11D02C
:1007B000286820F480302860286820F4802002E037
:1007C000286840F480302860606890B1FFF76AFEC6
:1007D00006460AE0286840F480202860F0E700BF61
:1007E000FFF760FE801B642873D828688003F7D564
:1007F0000CE0FFF757FE064605E000BFFFF752FE8C
:10080000801B6428F0D828688003F7D420789A4E9B
:1008100080074FF001094FF0000839D5686810F0E3
:100820000C0F07D06868C0F38100022809D16868FE
:10083000C00306D42868800714D52069012808D190
:1008400010E02069B0B1C6F80090FFF72BFE074614
:1008500005E00AE1FFF726FEC01B0228C4D828687D
:100860008007F7D52868616920F0F80040EAC100E8
:1008700028600DE0C6F80080FFF714FE074604E08C
:10088000FFF710FEC01B022823D828688007F7D482
:10089000207800072CD57948A169D9B1C0F800901B
:1008A000FFF700FE074604E0FFF7FCFDC01B02282F
:1008B0000FD8686A8007F7D571484FF4FA5100687D
:1008C000B0FBF1F0009000BF0098411E0091FAD2F9
:1008D0000EE080E0C0F80080FFF7E4FD074604E08A
:1008E000FFF7E0FDC01B022875D8686A8007F7D4BF
:1008F0002078400760D5E8690027C00008D4E8697F
:1009000040F08050E861E869012700F080500090D5
:100910005C480168C90513D40168834641F48071BD
:100920000160FFF7BFFD824606E000BFFFF7BAFD9A
:10093000A0EB0A0064284ED8DBF80000C005F5D50E
:10094000E06801280AD008B1052813D0286A20F0F1
:1009500001002862286A20F0040002E0286A40F0C2
:1009600001002862E06841F2883B98B1FFF79AFDE8
:1009700082460BE0286A40F004002862EEE700BFE0
:10098000FFF790FDA0EB0A0159455AD8286A800765
:10099000F6D50CE0FFF786FD824605E0FFF782FD05
:1009A000A0EB0A0159454CD8286A8007F6D41FB13C
:1009B000E86920F08050E861E06988B36968C1F3B4
:1009C0008101022944D00228C6F8608004D0FFF7D4
:1009D00069FD044638E034E0FFF764FD074604E0B3
:1009E000FFF760FDC01B02282BD828688001F7D4D0
:1009F000206AB0F5803F05D16868A16820F4003016
:100A000008436860D4E908010843696821F4741157
:100A100008436860C6F86090FFF744FD044606E0AE
:100A200025E000BFFFF73EFD001B022809D828681B
:100A30008001F7D51BE000BFFFF734FD001B022843
:100A400002D90320BDE8F88F28688001F4D40EE0B5
:100A50000128F7D06868226A00F48031914204D1FD
:100A6000616A00F47010884201D00120EAE700209A
:100A7000E8E70000001002400000424280044242C9
:100A8000500000200070004010B5401EB0F1807F83
:100A900001D3012010BD4FF0E02460610F216017E9
:100AA00000F02FFA0020A06107202061002010BD77
:100AB000FEE70000094808B5816941F02001816125
:100AC000816901F020010091816941F00401816197
:100AD000806900F00400009008BD00000010024092
:100AE000FEE700000C4941630C4981630C49C16376
:100AF0000C4901640C4941640C4981644FF07C51FC
:100B0000C1640B490163002141608160C160816162
:100B1000C1610162704700001283403D8FC2F53C05
:100B20002DB23D3FFE65373F6666E63F2766BD3B1B
:100B30000000C0412DE9F047056B0E46044685F0E4
:100B4000004791463946304602F0A2F801D23D46B0
:100B500005E02946304602F09BF900D33546676828
:100B6000606C394602F0C8F8A66880463146206CB1
:100B700002F0C2F8294602F0EDF9414602F07CFA93
:100B8000A16C01F07BFF2061A16901F003FF4946E0
:100B900002F0B2F84FF0FF35294602F042FB394629
:100BA00001F0F8FE014660604C4A26F00040904299
:100BB0000ADAE06B02F0A0F820F00040E16C02F0ED
:100BC00067F801D200201AE0A66816F1FF4F02D2A2
:100BD0004FF07E5000E04248E16C02F08DF807468D
:100BE0003146A06B02F088F806466168E06B02F0BF
:100BF00083F8314602F040FA394602F03DFA60616E
:100C0000616B01F03BFF60610646E16901F0C2FEE5
:100C1000494602F071F82F46294602F002FBA1680E
:100C200001F0B8FEA0600546216A01F0B3FE494616
:100C300002F062F8394602F0F4FAE16801F0AAFE27
:100C4000E06020692562C4E90606FFF7C5FB254977
:100C500002F052F8616801F09DFE234E314601F02A
:100C60000DFF0D2102F0DDFA00F000FE01F0E4FFBF
:100C70006FF00C05294602F0D4FA314602F03CF838
:100C80001A4E60623146E06801F0F8FE0D2102F074
:100C9000C8FA00F0EBFD01F0CFFF294602F0C1FADF
:100CA000314602F029F8E16A02F0E6F9494601F01E
:100CB000E5FEA0623146E06801F0E0FE0D2102F0A1
:100CC000B0FA00F0D3FD01F0B7FF294602F0A9FA0F
:100CD000314602F011F8E062BDE8F0876F12033B85
:100CE000000080BF9A99993E56555541DA0FC94088
:100CF000FEE700002DE9F041184C88460168606964
:100D000002F0BAF905464146A06101F0F5FF2168FD
:100D100001F040FE2060E66907463146284602F0B1
:100D2000ABF9414601F0AAFE6060C4E907560146EE
:100D3000206901F0E1FF06463946E06801F0DCFF7A
:100D400007462946A06801F0D7FF394601F022FE88
:100D5000314601F01FFE6062BDE8F081BC0000205A
:100D60002DE9F0411D4C88460168606902F084F964
:100D700005464146A06101F0BFFF216801F00AFE6F
:100D80002060E66907463146284602F075F941467B
:100D900001F074FE6060C4E907560146206901F065
:100DA000ABFF06463946E06801F0A6FF0746294634
:100DB000A06801F0A1FF394601F0ECFD314601F0D9
:100DC000E9FDA4F1500160624861F0314246A1F1B1
:100DD000F00000F005F86062BDE8F081E40000205A
:100DE0002DE9F041044690460968406902F044F953
:100DF00005464146A06101F07FFF216801F0CAFD70
:100E00002060E66907463146284602F035F941463A
:100E100001F034FE6060C4E907560146206901F024
:100E20006BFF06463946E06801F066FF0746294633
:100E3000A06801F061FF394601F0ACFD314601F0D8
:100E4000A9FD6062BDE8F081704770477047FFF709
:100E50002FBB30B58FB028216846FFF711FA142157
:100E60000AA8FFF70DFA01210804CDE900100024BB
:100E7000029402250491CDE907504FF4E010099047
:100E80006846FFF771FC08B172B6FEE70F20CDE9A6
:100E90000A054FF48060CDE90C4002210AA80E94A7
:100EA000FFF7A6FB002801D072B6FEE70FB030BDF9
:100EB0007047FEE7490050EAC12018BF04204A0DE0
:100EC00018BF40F0010040F2FF72B2EB515F08BF63
:100ED00040F00200012808BF0520704741000802C9
:100EE00018BF04200A0E18BF40F001004FF07F42E7
:100EF00032EA010108BF40F00200012808BF0520C6
:100F000070470907090E002804DB00F1E02080F893
:100F10000014704700F00F0000F1E02080F8141D6D
:100F2000704700002DE9F74F144694B00021C4E942
:100F300002111599079121F00045C9498D4206DC3F
:100F40001599C4E9000117B00020BDE8F08FC5492C
:100F5000DFF814A3A9423CDD0799C44E0029C44F11
:100F6000C44A1599534619DD01F0FEFB554506D0DC
:100F7000C14AC24B01F0F8FBC4E900010AE04FF09E
:100F8000D352BE4B01F0F0FB32463B4601F0ECFB86
:100F9000C4E9000117B00120BDE8F08F01F078F836
:100FA000554506D0B44AB54B01F072F8C4E90001CA
:100FB0000AE04FF0D352B14B01F06AF832463B469B
:100FC00001F066F8C4E9000117B04FF0FF30BDE84A
:100FD000F08FAB49A942159978DB21F00041834697
:100FE0008846A84AA84B01F0B5FA0022A74B01F0A9
:100FF0004FF801F055FA099001F081FA06460F46C4
:101000009C4A534601F0A6FA43465A4601F0A0FB1B
:1010100080468A46984A994B3046394601F09AFAFA
:101020002A0D01250B924246534601F091FB032DF8
:10103000C4E9000139D00B98C1F30A51401A05EBFD
:1010400045111139814230DA9148C346784400EBAA
:101050000510CDF80CA00C90D0E90023304639469D
:1010600001F078FA02460B4604910690584603991F
:1010700001F07AFB80468A4602460B4658460399A1
:1010800001F072FB049B069A01F06EFB83460C98FC
:1010900003913946D0E90223304601F05BFA5A4603
:1010A000039B01F061FB6D1CBDE707980028A2BF00
:1010B000099817B0BDE8F08F616881F00041616068
:1010C000099817B04042BDE8F08FFFE784461598B5
:1010D000C1F31301C0F30A50A0F2F5304FEA6018D3
:1010E00000F01F06C6F12000139000200690079024
:1010F00041F4801E05206D4676B1664A08EB00017A
:101100007A4452F8213002EB8101B3404A681399C6
:1011100022FA01F1194305E05F4908EB0002794426
:1011200051F82210A1FB0E27A1FB0C131A449A427E
:1011300034BF0123002303EB070A05EB8003D3E947
:1011400001B70F448F4234BF0121002193448B44E7
:1011500011B1934502D903E0934501D2012100E08A
:101160000021C3E901B7514445F82010011EA0F148
:101170000100C1DC0298059F00F10050800F129021
:101180000298DDE90356800001F0B9F9834628464C
:101190000D9101F0CBF96FF01D0202F014F8CDE9CA
:1011A0000E01304601F0C2F96FF03D0202F00BF87B
:1011B00080468A46384601F0B9F96FF05D0202F0C8
:1011C00002F8074642465346119100F061FFDDE9FF
:1011D0000E2300F05DFF5A460D9B00F059FF0025DD
:1011E0000E465A4628460D9B01F0BEFADDE90E2355
:1011F00001F0BAFA4246534601F0B6FA3A46119B5C
:1012000001F0A6FADFF898A0244A534601F0A2F9AB
:1012100007468846234A244B3146284601F09AF96E
:101220003A46434600F034FF074688464FF0A8424E
:1012300053463146284601F08DF93A46434600F0C0
:1012400027FF159A12F0004F04D0129A81F0004146
:1012500052421292C4E90001129817B0BDE8F08F13
:10126000FB21E93F7CD90240FB21F93F7370032E3B
:101270008A19A33B000040543163621A61B4D03D27
:10128000FB21394183C8C96D305FE43F0000E03F76
:10129000E02200005C2200003E220000182D445491
:1012A000FB21F93D3326A611460B113C2DE9FF4DDC
:1012B00021F0004807460C46B8F1795F08DA01F0E2
:1012C000EFF8002801BF0020324904B0BDE8F08DDE
:1012D0003A4623461046194601F03CF905460246B7
:1012E0002D480E460B460621784400F05DF82A464C
:1012F000334601F02FF9DDE9022382468B4638465A
:10130000214601F027F904460F4652465B4628461F
:10131000314601F01FF922463B4601F025FA074607
:101320008A464FF0FF322846314601F04CFF1B4AF7
:1013300090450ADA3A46534601F016FA04B0002204
:10134000BDE8F04D134B01F003BA154A4245A8BF62
:10135000A8F500154FF00004B8BF124D22462B46E9
:1013600001F002FA0646884622462B46002009492B
:1013700001F0FAF904460D463A46534630464146D6
:1013800001F0F2F904B022462B46BDE8F04D01F021
:10139000DFB900000000F03F142000003333D33FDA
:1013A0000000E93F0000D23F2DE9F0414F1E00EB65
:1013B000C7010446D1E9000115461E4637F0060272
:1013C0000DD02A46334601F0C5F87F1E04EBC70353
:1013D000D3E9002300F05CFE37F00602F1D1022FC2
:1013E00025D0042F13D0062F18BFBDE8F0812A4660
:1013F000334601F0AFF8D4E90A2300F049FE2A464B
:10140000334601F0A7F8D4E9082300F041FE2A464C
:10141000334601F09FF8D4E9062300F039FE2A464E
:10142000334601F097F8D4E9042300F031FE2A4650
:10143000334601F08FF8D4E9022300F029FE2A4652
:10144000334601F087F8D4E90023BDE8F04100F00D
:101450001FBE00002DE9FF4D054621F0004084B07D
:101460000C46B0F1795F0BDA2846FFF723FD04281C
:1014700008BF00F06FF8284608B02146BDE8F08D9F
:101480002A460B46104601F065F806460F462A46E6
:10149000234601F05FF8804626488A4632463B469E
:1014A00005217844FFF780FF83461098029160B3CE
:1014B000214A224B4046514601F04CF8CDE900014B
:1014C0005A4640465146029B01F044F882468846FF
:1014D000DDE906014FF0FF3201F075FE524643464A
:1014E00001F042F932463B4601F034F8DDE90623CB
:1014F00001F03AF9DDE9002301F036F908B02A4697
:101500002346BDE8F04D01F023B90B465A4630465C
:10151000394601F01FF8084A084B00F0B9FD424671
:10152000534601F017F808B02A462346BDE8F04DAF
:1015300000F0AEBD721F0000495555555555C5BF49
:10154000012201F040BE002213461046114600F071
:101550004FBE0000024A0020110701F034BE000017
:1015600001FDFFFF00214FF07E5001F087BA0121FD
:1015700001F057BE0021084601F080BA6FF05E010D
:10158000080701F04EBE00002DE9F04D0D4614464F
:101590004FF07F41B1EB440F9EBF4FF0FF31296008
:1015A000BDE8F08D4FF0004040EA0421C4F3C7507D
:1015B000783810F01F024A4B4FEA601CC2F1200637
:1015C0007B44C4F3C750A0F178004FEA601003EBEE
:1015D000800053F82C3008BFD0E901C612D0D0F8F3
:1015E00004C093402CFA06F73B4387680CFA02FCD0
:1015F00027FA06F8C06807FA02F2F0404CEA080C35
:1016000042EA0006A3FB0132ACFB01C0A6FB01616C
:1016100001EB0C068E4234BF4FF0010C4FF0000C72
:10162000C1186144BCF1000F02D0814202D903E02D
:10163000814201D2012000E00020104400F120028C
:101640004FEA92188006CA0C40EA42304F03C5F8B0
:10165000008001F0F1FA8246384601F005FB6FF098
:10166000120101F0DEFD0746304601F0FDFA6FF091
:10167000250101F0D6FD83463946504601F08AF92E
:10168000594601F087F900F500666FF30B065146E5
:10169000304601F0F1FC394601F0EEFC594601F00C
:1016A00059FC104901F028FB07460F49304601F06C
:1016B00023FB394601F06EF907460C49304601F02C
:1016C0001BFB394601F066F914F0004F08BFBDE876
:1016D000F08DC8F1805180F000402960BDE8F08DA8
:1016E000341E0000DB0FC92F22AAFD290000C92FDC
:1016F0002DE9F843044602464F486946B0EB420FD5
:1017000009D94FF0E640B0EB420F94BF00204FF0F4
:10171000FF30009030E0494B22F00040834271D905
:101720004749204601F0E8FA01F0E4FB804601F069
:1017300067FA00F0030000904249404601F0DCFAED
:1017400005464149404601F0D7FA06463F49404622
:1017500001F0D2FA07463E49404601F0CDFA214653
:1017600001F0F8FB394601F087FC314601F084FCBA
:10177000294601F081FC04462546009C002C45DBEF
:10178000294614F0010F08461CD001F0B5FA0646B0
:10179000304901F0B1FA304901F0DCFB314601F08B
:1017A000ABFA2E4901F0F6F8314601F0A5FA2946C8
:1017B00001F0A2FA294601F0EDF814F0020F1CD056
:1017C000BDE8F88301F098FA0546254901F094FA3E
:1017D000244901F0DFF8294601F08EFA224901F090
:1017E000D9F8294601F088FA4FF07E5101F0D2F87D
:1017F00014F0020F08BFBDE8F88380F00040BDE898
:10180000F883FFE71046FFF7BFFEB4E76800B0F1CA
:101810007F4F3CBF4FF07E50BDE8F88307D14FF0BB
:101820000100FEF75CFDBDE8F843FFF7A3BE2846C4
:10183000BDE8F843FFF79BBEB61F927E490E4946AE
:1018400083F9223F1A61342C0020A23300A0FD3915
:101850000000C93F336D4C39DA82083CA0AA2ABE89
:10186000B93AB2BACA9F2A3DDDFFFFBE70B5054640
:1018700001F0C6F9044601F0DFF9294601F06AFBE0
:10188000B0F17C5F00DD641C204670BD2DE9F041A5
:101890000026A0F50001B1F1FE4F7DD200F5002237
:1018A0006FF07E0101EBE251C2F3025477184FF062
:1018B0007E52A0EBC15602EB045557EA040047D014
:1018C0002946304601F066F880462946304601F048
:1018D000D3FB414601F0D2F80546014601F00CFA6F
:1018E0008046454901F008FA444901F053F806469C
:1018F0004146284601F000FA314601F0FDF906465E
:10190000384601F099F907463D4901F0F5F93D499E
:10191000794451F8241001F03DF8314601F03AF8CD
:1019200006460121284601F07CFC314601F032F8E0
:1019300005463846344901F0DFF93449794451F815
:10194000241001F027F82946BDE8F04101F022B843
:101950004FF07E51304601F08FFB05462C4901F0D7
:10196000CBF92C4901F016F8294601F0C5F92A49AE
:1019700001F010F8294601F0BFF96FF0824101F043
:1019800009F804462946084601F0B6F9214601F057
:10199000B3F90146284600E003E0BDE8F04100F05D
:1019A000F9BF4FF07F42B2EB400F03D2BDE8F041E8
:1019B000FFF7DDBDB0F1FF4F08BFBDE8F081B0F12A
:1019C000004F06D90120FEF78AFCBDE8F041FFF781
:1019D000D1BD30F0004105D06FF01606172101F09F
:1019E00020FC5BE70220FEF77AFCFFF7BBFD80F0EE
:1019F0000040BDE8F081000066F1CC3EAAAA2A3F73
:101A0000F4FD0538CC1900000070313F801900004A
:101A100021ED423E0A1180BEC1ABAA3E1CB5FEF7C5
:101A20004FFDFFF716FAFFF745F84820FEF7B8FC20
:101A30008748FFF757F886485030FFF753F8844837
:101A4000A03800F08BF98248783800F087F9804898
:101A5000503800F01FF97E48283800F047F9DFF8C9
:101A6000F0B1DFF8F0A1ABF1A00B0BF1CC000190CD
:101A70005030794C794D4FF080494FF07E580090AE
:101A800075484030FEF772FC01462061606800F046
:101A900081FF60606E48FEF7EFFC60626C48FEF705
:101AA000EDFCE0616A48FEF7E5FC206268485030D2
:101AB000FEF7E2FC206366485030FEF7DFFCA062D0
:101AC00063485030FEF7D6FCE062E0684746B84213
:101AD0000AD15F4922692831A1F1C800FFF780F9D6
:101AE0006061E068B84209D021690198FFF702F906
:101AF000606121690098FFF733F9A061A06848454B
:101B000029D1E068B84203D16168CBF8141055E0E0
:101B10002946606801F0F0F800F010FF00F05CF971
:101B20004F4E504B324600F015FD00F07FFA484909
:101B3000503948612946606801F0DEF800F0FEFE89
:101B400000F04AF93246474B00F004FD00F06EFA0F
:101B50003F4928394861A0685646B04212D1E06832
:101B6000B8420FD14049606801F0C6F800F0E6FEC7
:101B700000F032F900223D4B00F0ECFC00F056FA88
:101B8000CBF81400A068B04218D1E068B84215D074
:101B90002F49002050394861283148612169019856
:101BA000FFF7A8F8216800F0F5FE60612169009850
:101BB000FFF7D6F8216800F0EDFEA061D4E904211A
:101BC0002348FEF7B7FF224822695030A169FEF78B
:101BD000B1FF2549606801F08FF800F0AFFE244A9C
:101BE000244B00F0C1FD00F0F7F8234A234B00F02E
:101BF000B1FC00F01BFA60632946606801F07CF8D4
:101C000000F09CFE00221E4B00F0AEFD00F0E4F858
:101C10001C4E1D4F32463B4600F09CFC00F006FA7D
:101C2000A0632946606801F067F800F087FE174A54
:101C3000174B00F099FD00F0CFF832463B4600F01C
:101C400089FC00F0F3F9E0630120FEF719FC17E7C7
:101C50000C01002000004040000000200000A040D7
:101C60006E861BF0F92119400000704100002440ED
:101C700085EB51B81E85DB3F48E17A14AE471C4026
:101C80000000F83F5EE2FA3DD2C411408FC2F52851
:101C90005C8FEA3F30B50021104A01604160104C72
:101CA0009268A5070F4BB2F17E5F05D0AA4209D119
:101CB000C0E9023101610BE00B4AC0E90452C0E9FE
:101CC000023405E09A4203D100F1080282E83800AC
:101CD00081614269C0E90721416230BD00000020F6
:101CE000CDCC4C3E00004040DA0FC94010B5002179
:101CF000124A016041609268B2F17E5F08D04FF0F5
:101D00008044A2420DD10E4AC0E9022101610FE0D8
:101D10000C4A82600C4AC2600C4A02610C4A426161
:101D200006E00C4B9A4203D10B4A0461C0E902322F
:101D300081614269C0E90721416210BD00000020B5
:101D4000CDCCA4400000A0409A99993E9A99F93FC1
:101D5000DA0FC94000004040CDCC4C3E30B50021E8
:101D6000174A0160416093684FF07E544FF0804500
:101D7000A3420AD1D268A24205D1124AC0E9041294
:101D8000C0E9024515E0104A10E0AB420BD1D36820
:101D90004FF08242A342826001D10C4A00E00C4A1B
:101DA000C0E9032105E00B4A934202D1C0E90221B8
:101DB000016181614269C0E90721416230BD0000D3
:101DC00000000020000020416666263F0000C04061
:101DD0000000A0400000404000B5254B21F000422B
:101DE00087B09A4203DC0022134600922BE0214B7D
:101DF0009A4208D140B94FF00100FEF770FAFFF7A0
:101E0000A2FB07B000BD03DBFFF79AFB07B000BDE4
:101E100002AAFFF787F810F003014FF001000DD080
:101E2000012914D002291AD00DF1080C9CE80F00EA
:101E3000FFF73CFA07B081F0004100BD0DF1080C3E
:101E400000909CE80F00FFF705FB07B000BD0DF107
:101E5000080C9CE80F00FFF729FA07B000BD0DF150
:101E6000080C00909CE80F00FFF7F4FAE2E700008E
:101E7000FB21E93F0000F07F2DE9F84304460246CC
:101E800052486946B0EB420F09D94FF0E640B0EB3B
:101E9000420F94BF00204FF0FF30009030E04C4BD9
:101EA00022F00040834271D94A49204600F024FFC5
:101EB00001F020F8804600F0A3FE00F0030000903F
:101EC0004549404600F018FF05464449404600F0A9
:101ED00013FF06464249404600F00EFF07464149BF
:101EE000404600F009FF214601F034F8394601F080
:101EF000C3F8314601F0C0F8294601F0BDF80446A8
:101F00002546009C002C45DB294614F0010F0846AD
:101F10001ED000F0F1FE0546334900F0EDFE3349D6
:101F200000F038FD294600F0E7FE314900F032FDAF
:101F3000294600F0E1FE4FF07E5100F02BFD14F039
:101F4000020F08BFBDE8F88380F00040BDE8F883C9
:101F500000F0D2FE0646274900F0CEFE264900F0EA
:101F6000F9FF314600F0C8FE244900F013FD314668
:101F700000F0C2FE294600F0BFFE294600F00AFD2F
:101F800014F0020FE0D1BDE8F883FFE71046FFF739
:101F9000FBFAB4E76800B0F17F4F09D22846FEF79C
:101FA0009DFF042808BFFFF7E9FA2846BDE8F8833B
:101FB00006D10120FEF793F9BDE8F843FFF7DABA3E
:101FC0002846BDE8F843FFF7D2BA0000B61F927E5C
:101FD000490E494683F9223F1A61342C0020A2336E
:101FE00000A0FD390000C93FB93AB2BACA9F2A3DE4
:101FF000DDFFFFBE336D4C39DA82083CA0AA2ABE51
:1020000070B5054600F0B0FF044620F00040C0F176
:10201000FF40C00F08D025F00040C0F1FF40C00FC6
:1020200004BF0120FEF75BF9204670BD21F000429D
:10203000A2F16052B2F5801F01F0004328BFD2F137
:102040007F6C0BD95FEA001C43EAC20242EB50707E
:1020500018BF704728BF20F001007047B2F5801FFD
:10206000BCBF184670474FEA410C1CF5001F02D256
:10207000084600F008BF70B500F016FB00000089AC
:10208000FFF7F6BF4FF00040A0F58000704700005A
:1020900010B591EA030F48BF83F0004300F16C8351
:1020A000841A71EB030C05D2121943EB0C03001BCD
:1020B00061EB0C01DFF824E14FEA1154A4EB135C4F
:1020C0001EEA430F18BF9EEA445F73D023EA0E0353
:1020D000DCF1200E21EA045143F4801332D322FABA
:1020E0000CFE10EB0E0023FA0CFE41EB0E01CCF1BE
:1020F000200E03FA0EFE10EB0E0051F10001B1F5B7
:10210000801FCCF1200E32D201EB045112FA0EF2F4
:10211000BDE8104058BF7047401C38BF5FEA42021C
:1021200018BF7047002814BF20F0010041F10001E2
:102130004FEA410313F5001F38BF7047A1F1C041BA
:1021400000F000BB012A43EB0302ACF1200CDCF1F0
:102150001F0E32BF4FF0000E23FA0CF310EB0300FA
:1021600041EB0451B4EB115FD0D0A1EB045101F568
:10217000801149085FEA300001EB04510ED350F1A1
:10218000000038BF12FA0EFE08D1BDE81040C9E7C2
:10219000401C38BF5FEA4202CAD1C3E7BDE8104025
:1021A0004FEA410313F5001F38BF7047A1F1C0414A
:1021B00000F0C8BA9EEA445F08D011EA5E0FBDE89D
:1021C000104004BF01F0004100207047BDE81040FE
:1021D00070B500F069FA00BF64FBBE3E0000E0FF8E
:1021E00002494FF0000000F0BCBF00BF0000F87FC4
:1021F0002DE9C04130B4DFF8A0C23CEA111418BF89
:102200003CEA131400F0EC8081EA03051CEA111487
:1022100044EAD57418BF1CEA131500F0C780A4EB7C
:1022200005044FF0004545EAC12145EAC32341EAD0
:10223000505143EA525304F17F74994204F500343B
:102240004FEAC0204FEAC22208BF904200F09C80B3
:102250004FEA13650FF24016765D4FEA134506FB11
:1022600005F7C7F1807706FB07F74FEAD737A7FBDB
:1022700003687642C8F58038A7FB06CE38BFA8F1C0
:10228000010807FB08E64FF0000EA6FB028CE6FBF8
:1022900003CEDCF1000CCEF1004E38BFAEF1010EE2
:1022A000A6FB0C584FF000074FF00005E6FB0E8729
:1022B000A1FB08C6A0FB07CE16EB0E0645F10005F4
:1022C000E1FB076515F1E04E7EBFA4F580345FEABF
:1022D00046066D4116F1800745F100054FEA1727C4
:1022E0004FEA066647EA0567A6F1DE46B6F1805F6B
:1022F0004FEA15251FD9384624F0010C05EBC471AF
:10230000BCF1FE6F01EB0C1102D8F0BCBDE80081FE
:1023100024425CBF01F5801E9EEAC47F02D4F0BC5B
:10232000BDE80081244238D4F0BCA1F1C041BDE831
:10233000004100F007BA4FEAD22242EA43524FEA84
:10234000D323A7FB02864FEAD02040EA415007FB87
:1023500003661EEA0E0F4FEAD12105FB026658BF45
:10236000A6EB0056B6EB00564FEA520E4EEAC37E7D
:1023700018EB0E0E56EB530EBDD518EB02085E415E
:102380007F1C55F10005B6E74FF480154FF00007AC
:102390004FF000064FF00008ADE7F0BC4FF0000032
:1023A00001F1C04101F00041BDE8008111EA0C1FBC
:1023B0000CEA131500D00CE013EA0C1F00F0258086
:1023C0004FF00000F0BC81EA030101F00041BDE8DC
:1023D0000081F0BCBDE8004181EA030100F0B2B920
:1023E000F0BCBDE8004170B500F05EF9097EFC3E2E
:1023F00000F007B881EA03014FF0000001F000414E
:10240000704781EA030100F09DB9F0BCBDE80041CE
:102410004FF0000021497047FFFDFBF9F7F5F4F29A
:10242000F0EEEDEBE9E8E6E4E3E1E0DEDDDBDAD86F
:10243000D7D5D4D3D1D0CFCDCCCBCAC8C7C6C5C4CD
:10244000C2C1C0BFBEBDBCBBBAB9B8B7B6B5B4B3E4
:10245000B2B1B0AFAEADACABAAA9A8A8A7A6A5A4CF
:10246000A3A3A2A1A09F9F9E9D9C9C9B9A99999893
:102470009797969595949393929191908F8F8E8E36
:102480008D8C8C8B8B8A89898888878786858584C3
:1024900084838382828181800000FF070000F87FAF
:1024A0004FEA41034FEA5353A3F58063D3F11E0370
:1024B000C8BFD3F1210C0CDD4FF0004242EAC1222B
:1024C00042EA505232FA03FC8CEAE17CACEBE17058
:1024D0007047102BC4BF0020704703F5787CBCF117
:1024E000FF3F04D06FF0004282EA2100704770B5D0
:1024F00000F0DAF84992248000207047F2E710F0EB
:10250000004248BF4042B0FA80F310FA03F10AD00B
:10251000C3F11D0303F580634FEA415002EB035200
:1025200002EBD12170474FF000007047B0FA80F302
:1025300010FA03F10AD0C3F11D0303F580634FEADB
:1025400041504FEA035202EBD12170474FF0000097
:1025500070470000DFF848C170B51CEA111E1EBFAD
:102560001CEA13159EEA0C0F95EA0C0F00F06F8021
:1025700081EA030423EA4C134EEAD47E21EA4C118B
:1025800041F4801143F48013AE44A1FB024CA0FB44
:102590000365AEF17F7E361955EB0C05A1FB034CAC
:1025A0004CF10003A0FB021C16EB0C06654153F135
:1025B0000003094218BF46F0010613F4007F0BD157
:1025C0004FEA03314FEA0530340341EA155140EA3E
:1025D00016506FF003020AE04FEAC3214FEAC5200C
:1025E000F40241EA555140EA56506FF0020202EB04
:1025F0002E4201EB025585EACE710AD05FEA440C07
:1026000018BF24F0004450F1000041F1000120EA1D
:10261000D47040F2FE7C624500D270BDA84214BF67
:102620004FF080444FF04044002E08BF0024BEF11C
:10263000806FA8BFA1F1C041BDE8704080F28280E8
:102640004FF0000001F1C04101F0004170479EEAE7
:102650000C0F0CEA131518BF95EA0C0F06D04FF0BB
:10266000000081EA030E0EF0004170BD00F01CF87E
:102670008900013E00F007B800F009B84FEA430CAA
:102680005FEA5C5C08D081EA030100F05BB84FEAC6
:10269000410C5FEA5C5CF6D14FF0000001497047E5
:1026A0000000FF070000F87F0EF1020E2EF0030E6F
:1026B0005EF8046B364205D4012A43EB030515F599
:1026C000001F12D8012841EB010C1CF5001F0CD88B
:1026D0000ED14FEAD17C15F5001F0CEB4C0C0CF120
:1026E000020C08BF4CEBD37C04E04FF0080C01E077
:1026F0004FEAD37C0CEB4C0526FA05F606F00706EC
:10270000B6F1040C06D20EEB860CBDE870404CF01E
:10271000010C6047DFE80CF0090B02024FF00041AA
:102720004FF00000A1F5002170BD194610460128A8
:1027300051EB010418BFD4F5001484BF002001F050
:10274000004170BD0808A0F500114FEA3101704743
:1027500091EA030F10B581F000413FF5A1AC83F081
:10276000004300F009B8000010B591EA030F48BF1C
:1027700083F000433FF594AC841A71EB030C07D24D
:1027800012198CF0004C43EB0C03001B61EB0C01A5
:10279000DFF8A4E14FEA1154A4EB135C1EEA430FE7
:1027A00018BF9EEA445F00F0B08023EA6E035242F5
:1027B00021EA0451C3EB6E0338BF5B1EDCF1200E2F
:1027C00025D322FA0CFE10EB0E0043FA0CFE41EB6F
:1027D0000E01CCF1200E03FA0EFE10EB0E0051F1AB
:1027E0000001CCF1200E29D412FA0EF201EB0451B3
:1027F000BDE8104058BF7047401C1CBFB2F1004FED
:10280000704700280CBF491C20F00100704712EBF4
:10281000020E43EB030218BF4FF0010E4EEA4202D4
:10282000ACF1200CDCF11E0E54D943FA0CFE10EB77
:102830000E0051F1FF31CCF11E0ED5D50EF1010E77
:1028400012FA0EFE404141EB010101EB445C5FEAEC
:102850005C5C10D910EBDE7001EB045138BFBEF1A7
:10286000004FBDE8104018BF704700280CBF491C3E
:1028700020F00100704730D24FEAD42C11F500113E
:1028800024F400641BD0B1FA81F20B3AA41AA41EFE
:10289000D2F12003914030FA03F31943904001EB49
:1028A000CC71002C01EB0451BDE81040A8BF70476B
:1028B00001F1C0414FF0000001F000417047B0FA53
:1028C00080F310FA03F100D110BDE41A173C48055B
:1028D000C90AE4E701EB045110BD491001EB0451B2
:1028E000BDE810404FEA300002E04FF000017047B1
:1028F0004A0008BF0042F8D0B2F5001F28BF704759
:1029000001F000414FF0000070479EEA445F07D09D
:1029100011EA5E0FBDE8104004BF0021002070479F
:10292000BDE8104070B5FFF7BFFE00BF40DFF63EC8
:1029300083F00041104670470000E0FF43004FEA7B
:10294000D30C4FEA3C0C43401FBF40070CF16051D1
:1029500013F0FE4F70471CF0006F03D100200CF005
:10296000004170470CF0004343EA507010B540EA54
:10297000CC0000F042FA00BF000000924FEA0001D4
:10298000FFF7E0BE4FF000414FF00000A1F500213D
:102990007047000090EA010F48BF81F0004100F14C
:1029A0007283421A3CBF801A89184FEAD0524FF006
:1029B0007F4C1CEA410FA2EBD15318BF9CEA026F77
:1029C00000F03B804FF0004C4CEA00204CEA012123
:1029D00021FA03FC10EB0C0C1ED202F1FF325FEA6D
:1029E0001C2040EBC25038BF70471CF07F0F4FEAED
:1029F000400C18BFBCF17F4F38BF7047C3F12003B4
:102A0000994008BF20F00100BCF17F4F38BF7047EC
:102A1000A0F1C04000F037BA4FEA3C00000A40EB9A
:102A2000C25028BF1CF0FF0F4FEA400CE6D018BF81
:102A3000BCF17F4F38BF7047EAE79CEA026F05D0D0
:102A400010EA5C0F08BF00F00040704710B500F0BE
:102A5000D4F900BF64FBBE3E014800F082BB00BF5A
:102A60000000C07F401058BFC0F14040491058BF1F
:102A7000C1F140418142EFF3008070474FF47F0C79
:102A80001CEAD0121EBF1CEAD11392EA0C0F93EA83
:102A90000C0F00F0858090EA010F48BF42F480726D
:102AA00040F4000C41F400002CF07F4120F07F4006
:102AB00000B58142A2EB03020FF2081CACEB504EB2
:102AC000C0F100009EF800E04FEA4E0E00FB0EFC45
:102AD00038BF49004FEA2C1C02F5FA020CFB0EF33A
:102AE0004FEACE1E4FEA112C4FEAC1210EEB635E76
:102AF00042EB22420EFB0CFC4FEA1C5300FB03117D
:102B00004FEA112C4FEA01310EFB0CFC4FEADC4C72
:102B100000FB0C11C14228BF09184CEB03335DF8D0
:102B200004EB10EB410143EBC250B2F57C0F38BF10
:102B3000704729D512F0F00F1CBF00F1C04000F023
:102B400000407047008182838485868788898B8CCA
:102B50008D8E8F919293959697999A9C9D9FA0A206
:102B6000A3A5A7A8AAACAEB0B2B3B5B7B9BCBEC056
:102B7000C2C5C7C9CCCED1D4D7D9DCDFE2E6E9ECF7
:102B8000F0F3F7FAFE0000004FEA400C0CF1807CF5
:102B9000BCF17E4F28BF7047B0F1C04000F073B960
:102BA00090EA010F0CEAD11348BF42F480726245EB
:102BB00038BF634507D213F47F0F16D080EA0100B7
:102BC00000F00040704710B500F017F9097EFC3E98
:102BD00000F005B880EA010000F00040704780EA8C
:102BE000010000F0004000F04EB912F47F0F04BF66
:102BF0000248704780EA010000F045B90000C07F3C
:102C000041000B0ED3F19E0208D950F400034FEAA5
:102C1000032323FA02F048BF4042704710B500F08A
:102C2000ECF800BF49922480002070476FF000420A
:102C300082EA20007047000010F0004148BF404287
:102C4000B0FA80F310FA03F2C3F19D030BD051EAFE
:102C5000C35101EB1220530638BF704700F1010049
:102C600008BF20F001007047B0FA80F310FA03F2B9
:102C7000C3F19D030AD0D90501EB1220530638BFDA
:102C8000704700F1010008BF20F00100704700000C
:102C900050EA010C00F113801CF5000F58BFBCF581
:102CA000000F01D48842704707D710F5000F58BFB6
:102CB00011F5000F15D488427047894270471CF502
:102CC000000F04D5BCF5000FF7D5814270474FF0D7
:102CD000807C1CEB400F38BF1CEB410F01D28142BE
:102CE000704710B500F089F8922449004FF0005069
:102CF0004FF08051FFF7B6BE4FF47F0C1CEAD012A4
:102D00001EBF1CEAD11392EA0C0F93EA0C0F00F0DD
:102D1000478090EA010F48BF42F480724FF0004CA8
:102D20004CEA00204CEA012102EB0302A0FB011354
:102D3000A2F50002002918BF43F001035B0028BF81
:102D40004FEA330342EB22425FEA132C4CEBC250B2
:102D50002EBFBCEB436FB2F57C0F70474FEA036C9C
:102D6000BCF1004F08BF20F00100B2F57C0F38BF66
:102D700070470BD582F0FF0212F5803FC8BF704745
:102D800000F1C040D8BF00F00040704700F5000CD3
:102D90005FEA4C0C48BF7047B0F1C04000F073B818
:102DA00090EA010F0CEAD11348BF42F480726245E9
:102DB00038BF634504D280EA010000F0004070474C
:102DC00010B500F01AF800BF8900013E00F007B806
:102DD00000F009B85FEA410C5FEA1C6C08D080EA99
:102DE000010000F050B85FEA400C5FEA1C6CF6D1BD
:102DF0004FF00040A0F5800070470EF1020E2EF05B
:102E0000030E5EF8044B244204D44FEA4102B2F1AF
:102E10007F4F11D84FEA4003B3F17F4F0CD80ED14A
:102E20004FEAD07CB2F17F4F0CEB4C0C0CF1020C52
:102E300008BF4CEBD17C04E04FF0080C01E04FEAF6
:102E4000D17C0CEB4C0324FA03F404F00704B4F136
:102E5000040C06D20EEB840CBDE810404CF0010CC3
:102E60006047DFE80CF0070802024FF00040A0F5D1
:102E7000800010BD0846420018BFD2F1807288BFA2
:102E800000F0004010BDFF2141EAD050C00570475E
:102E900051EA000C00F113801CF5000F58BFBCF57F
:102EA000000F01D48142704707D711F5000F58BFBA
:102EB00010F5000F15D481427047894270471CF508
:102EC000000F04D5BCF5000FF7D5884270474FF0CE
:102ED000807C1CEB410F38BF1CEB400F01D28842B5
:102EE000704780EA010081EA000180EA0100FFF7F3
:102EF000F8BE00005FEA400C5FEA1C6CBCF17F0387
:102F000014D4D3F1170240F31C804FF0010C0CFADB
:102F100002FCACF101030340B3EB5C0220EA0300C6
:102F200008BF10EA0C0F88BF60447047B3F1FF3F41
:102F300028BF5FEA002C00F0004088BF40F07E50C0
:102F40007047BCF1FF0FB8BF704710B5FFF755FFD2
:102F500040DBB6BE80F0004090EA010F7FF521AD66
:102F600081F0004100F08FB84FEAD051002988BFAE
:102F7000D1F1FF0240F2758001F17D014FEA00209E
:102F800070B5490840F0004038BF40080EA2430E1B
:102F9000040CD25C02FB02F304FB03F3C3F14043D5
:102FA000A3FB0254ED0D45EA442202FB02F3A0FB11
:102FB00003546D42C4F1404438BF641EA2FB053582
:102FC0000023E2FB0453EA0B42EA4342A0FB023235
:102FD00012F14004A2F12103E40903F07F031F2B47
:102FE00032D904EBC15070BDFEFAF7F3F0ECE9E61C
:102FF000E4E1DEDCD9D7D4D2D0CECCCAC8C6C4C2B4
:10300000C1BFBDBCBAB9B7B6B4B3B2B0AFAEACAB6A
:10301000AAA9A8A7A6A4A3A2A1A09F9E9E9D9C9B8F
:103020009A999897979695949393929190908F8E62
:103030008E8D8C8C8B8A8A89898887878686858401
:10304000848383828281818004FB04F6B6EB004690
:1030500003D5E64248BF641CC3E7A64258BF641CC0
:10306000BFE711F0FF0F02D100F00040704710B52C
:10307000FFF7C3FE7FDBFFBE90EA010F48BF81F080
:1030800000413FF58EAC421A04D882F00042A0EB1A
:10309000020011444FEAD0524FF07F4C1CEA410F1E
:1030A000A2EBD15318BF9CEA026F4AD04FF0004CFC
:1030B0004CEA00204CEA012121FA03FCB0EB0C0C95
:1030C0000FD412F0FE0F36D05FEA4C001DD500126F
:1030D00040EBC25038BF70471CF03F0F18BF70471D
:1030E0000BE0A2F101025FEA1C2040EBC25038BFA6
:1030F00070471CF07F0F18BF7047C3F12003994041
:1031000014BF401E20F00100704780084FEA1223D0
:1031100008BF7047B0FA80FCA2EB0C02CCF1280C7F
:1031200060FA0CF093EA122F04BF00EBC250704714
:103130004FEAC3707047130A5FEADC1008BF70479C
:10314000F6E79CEA026F04D010EA5C0F08BF00208B
:10315000704710B5FFF751FE40DFF63E81F00040AA
:1031600070470CF00F03092B08BF082000F07F8088
:103170000A2B0BD0082B18BF704708BF1CF0400F5C
:103180000AD04FF000004FF0000170471CF0400FD4
:1031900018BF4FF0004070471CF0100F08D020F00F
:1031A000704300F07F4242EAD3014FEA4370704718
:1031B00000F0604021F07F4242EA000201F07F40CF
:1031C00040EA727070474FF0FF0C4CF4E06C1CEA60
:1031D00011531CBF9CEA030C9445C2BFDA4201EBB9
:1031E00002517047002B0DD0BCF1000F0FD0002A08
:1031F00001F00041A4BF41F0E04141F07F614FF098
:103200000000704701F000414FF00000704750EAA5
:1032100001334FF09B0C18BF4CF0806C7EF4E0AF94
:1032200070474FF0FF0212EAD0521CBF92F0FF032A
:103230008B42C2BFD14200EBC1507047002A0AD076
:10324000002B0BD0002900F00040A4BF40F0FE404E
:1032500040F40000704700F00040704743024FF018
:103260000B0C18BF4CF0806C7FF4F6AB70471CF46D
:10327000801F11D01CF4E02F03D06FEACC3149003D
:1032800070474FF04050EFF3008222F0704242EA64
:10329000000282F3008870474FF00000704701027F
:1032A00002030405060708090A0B0C0D0E0F101087
:1032B00000000000000000000102030406070809E6
:1032C000000000000030F13D0070643E0000A33EAD
:1032D0000090CF3E0090F83E00400F3F00E0203FBE
:1032E0000000000015B78337CDE37B380EE1C53809
:1032F00060F69138AF5F0F38E1BC3E3823F44739B0
:103300004C5555555555A53F7751C1166CC156BF03
:103310009015CB19A001FA3EAD529C804F7E92BE13
:10332000C4B1B4BD9EEE213ED43888BEE9FAA8BD32
:1033300000004054FB21F93F3163621A61B4D03D73
:103340000000601A61B4D03D7370032E8A19A33B4C
:103350000000002E8A19A33BC14920259A837B399E
:1033600000000000000000006E83F9A22915444E01
:10337000D15727FCC0DD34F5999562DB4190433C81
:10338000AB6351FE61C5BBDE3A6E24B7E0D24D425D
:10339000EA2E49061C92D1091CEB1DFE3EA729B15D
:1033A000F53582E88444BB2E26709CE9417E5FB4EB
:1033B00039D69139F43953838B5F849C3B28F9BD0E
:1033C000FF97F81F0F9805DE8B112FEF1F6D0A5A1C
:1033D000CF7E366DB709CB27663F464F2DEA5F9EFD
:1033E000C7BA27757BF1E5EBF739073DEA92528AB8
:1033F000B15FFB6B085D8D1F000000006E83F9A2BA
:103400002915444ED15727FCC0DD34F5999562DB70
:103410004190433CAB6351FEA6F810111111813F5E
:10342000D561C119A0012ABF7DFEB157E31DC73E7A
:10343000EB9C2B8AE6E55ABE7CD5CF5A3AD9E53DBE
:1034400060340008000000206C0000006C010008DF
:10345000CC3400086C0000208408000088010008BB
:1034600000000000000000000000803F000000405D
:10347000000000000000000000000000000000004C
:10348000000000000000000000000000000000003C
:10349000000000000000000000000000000000002C
:1034A000000000000100000010000000000000000B
:1034B00000127A0000000000000000000000000080
:0C34C00000000000000000000000000000
:0400000508000131BD
:00000001FF
