:020000040800F2
:100000004008002005020008F10C0008B10A0008B1
:10001000E10A0008690300088F0E000800000000D4
:10002000000000000000000000000000290E000891
:10003000D503000800000000250E00082B0E000864
:100040001F0200081F0200081F0200081F0200080C
:100050001F020008270E00081F0200081F020008E8
:100060001F0200081F0200081F0200081F020008EC
:100070001F0200081F0200081F0200081F020008DC
:100080001F0200081F0200081F0200081F020008CC
:100090001F0200081F0200081F0200081F020008BC
:1000A0001F0200081F0200081F0200081F020008AC
:1000B0001F0200081F0200081F0200081F0200089C
:1000C0001F0200081F0200081F0200081F0200088C
:1000D0001F0200081F0200081F0200081F0200087C
:1000E0001F0200081F0200081F0200081F0200086C
:1000F0001F0200081F0200081F0200081F0200085C
:100100001F0200081F0200081F0200081F0200084B
:100110001F0200081F0200081F0200081F0200083B
:100120001F0200081F0200081F0200081F0200082B
:1001300000F002F800F03CF80AA090E8000C8244BD
:100140008344AAF10107DA4501D100F031F8AFF29A
:10015000090EBAE80F0013F0010F18BFFB1A43F0A5
:10016000010318472432000044320000103A24BF33
:1001700078C878C1FAD8520724BF30C830C144BF0C
:1001800004680C607047000000230024002500264E
:10019000103A28BF78C1FBD8520728BF30C148BFEA
:1001A0000B6070471FB500F062F81FBD10B510BDA1
:1001B00000F0A4F81146FFF7F5FF01F01DFC00F078
:1001C000C2F803B4FFF7F2FF03BC00F0C7F8000069
:1001D0000B49D1F800C04A685CF8043B1068184429
:1001E00042F8040B8C4528BFA1F1DC0C8A4228BFE1
:1001F000A1F1DC02C1F800C04A6020F00040704765
:10020000D80100200948804709480047FEE7FEE77B
:10021000FEE7FEE7FEE7FEE7FEE7FEE7FEE7FEE7B6
:1002200004480549054A064B704700008D0E00083A
:100230003101000840020020400800204004002056
:10024000400400200B4910B5A1F17C020A4CC2E920
:100250003712372106E000EB104342F82130074BFC
:1002600000FB03400B1EA1F10101F4DC10BD0120D5
:10027000E8E7000078010020E119D666CD0D010005
:100280004FF0000200B5134694469646203922BF2F
:10029000A0E80C50A0E80C50B1F12001BFF4F7AF7A
:1002A000090728BFA0E80C5048BF0CC05DF804EB5C
:1002B000890028BF40F8042B08BF704748BF20F8CA
:1002C000022B11F0804F18BF00F8012B70477047C8
:1002D0007047704710B500F009F8006810BD10B500
:1002E000044600F003F8046010BD000000487047A9
:1002F000E001002000487047E00100207546FFF74C
:10030000F9FFAE4605006946534620F007008546D2
:1003100018B020B5FFF784FFBDE820404FF000067D
:100320004FF000074FF000084FF0000B21F00701DD
:10033000AC46ACE8C009ACE8C009ACE8C009ACE820
:10034000C0098D46704710B50446AFF300802046C3
:10035000BDE81040FFF735BF704700000149182085
:10036000ABBEFEE726000200FEE7000038B50446FB
:100370000948406800900948006802F017FC0546EB
:1003800020680099081A02F011FC294602F018FBB7
:100390000099216038BD0000001000E044000020FA
:1003A00008490A6842F080720A60074900224A60E0
:1003B0000A6842F001020A6004494843044908609F
:1003C00070470000FCED00E0001000E040420F002C
:1003D00044000020704700002DE9F041224C234DDD
:1003E000234E20694FF04048E0B1E06802F048FA3F
:1003F0002A46334602F050F801F0BAFD01F066F9E2
:100400000546A06801F030FA414602F017FC01F001
:1004100099FD294602F012FC2169C1F10101216117
:10042000BDE8F081FFF7D4FE02F00BF86FF01E0775
:100430003A4602F06AFE01F09BFDA060FFF7C8FE9D
:1004400001F0FFFF3A4602F060FE01F091FDE0602E
:1004500002F016FA2A46334602F01EF801F088FD33
:1004600001F0ACFCCCE700004800002044174154E8
:10047000FB211940C06A7047406A7047806A704724
:1004800070B5044600F00EF80546601C02D0044822
:100490000078044400F006F8401BA042FAD370BD77
:1004A00034000020014880687047000034000020BC
:1004B000024881680278114481607047340000204E
:1004C000074810B5016841F010010160032000F0F9
:1004D0007DF80F2000F006F800F024F8002010BD91
:1004E0000020024070B50D4D04464FF47A71287813
:1004F000B1FBF0F00A490968B1FBF0F000F0C4FA72
:1005000048B9102C07D200222146501E00F03EF8B8
:1005100000206C6070BD012070BD00003400002020
:1005200040000020104808B5816941F00101816157
:10053000816901F001010091C16941F08051C161FF
:10054000C069002200F0805000901146052000F0A4
:100550001DF8052000F00CF80448416821F0E06126
:1005600041F00071416008BD0010024000000140F0
:10057000002809DB00F01F020121914040098000A2
:1005800000F1E020C0F8001170470000F0B40E4BFD
:100590001B680C46C3F30223C3F10705042D00D9E1
:1005A0000425191D072901D2002300E0DB1E0126C6
:1005B00006FA05F1491E214099409E40761E1640DC
:1005C0003143F0BC00F08BBC0CED00E0064900F0BC
:1005D000070208684FF6FF03184040EA0220034A6A
:1005E00010430860704700000CED00E00000FA05C1
:1005F0002DE9F0470F46050061D0434E306800F00A
:100600000700B84209D2306820F007003843306054
:10061000306800F00700B84251D128683B4C810790
:1006200012D5400703D5606840F4E0606060287828
:10063000000703D5606840F4605060606068A96896
:1006400020F0F000084360602878C00728D0686870
:10065000012810D02168022810D0890700292EDA3D
:10066000616821F0030101436160FFF71BFF8046D1
:1006700041F288390DE021688903EFE78901EDE750
:10068000FFF710FFA0EB0801494502D90320BDE8A0
:10069000F0876068696800F00C00B0EB810FEFD163
:1006A000306800F00700B8420BD9306820F007002E
:1006B00038433060306800F00700B84201D00120B4
:1006C000E5E72878400705D56068E96820F4E06030
:1006D000084360602878000706D56068296920F41F
:1006E000605040EAC100606000F018F86168084A94
:1006F000C1F30311515CC840064908600648006810
:10070000FFF7F0FE0020C2E7002002400010024088
:10071000F431000840000020380000200E4A5168E3
:100720000E4801F00C03042B11D0082B0FD10C48FC
:10073000C1F38343C903C05C0AD55168084AC1F3B9
:100740004041921E515C054A5043B0FBF1F07047A6
:1007500004494843704700000010024000127A002C
:10076000E431000800093D002DE9F84F040070D085
:100770002078C04DC00749D06868C0F381000128C7
:1007800007D06868C0F38100022809D16868C003F7
:1007900006D52868800339D560680028E7D035E0A1
:1007A0006068B0F5803F0BD010B1B0F5A02F11D02C
:1007B000286820F480302860286820F4802002E037
:1007C000286840F480302860606890B1FFF76AFEC6
:1007D00006460AE0286840F480202860F0E700BF61
:1007E000FFF760FE801B642873D828688003F7D564
:1007F0000CE0FFF757FE064605E000BFFFF752FE8C
:10080000801B6428F0D828688003F7D420789A4E9B
:1008100080074FF001094FF0000839D5686810F0E3
:100820000C0F07D06868C0F38100022809D16868FE
:10083000C00306D42868800714D52069012808D190
:1008400010E02069B0B1C6F80090FFF72BFE074614
:1008500005E00AE1FFF726FEC01B0228C4D828687D
:100860008007F7D52868616920F0F80040EAC100E8
:1008700028600DE0C6F80080FFF714FE074604E08C
:10088000FFF710FEC01B022823D828688007F7D482
:10089000207800072CD57948A169D9B1C0F800901B
:1008A000FFF700FE074604E0FFF7FCFDC01B02282F
:1008B0000FD8686A8007F7D571484FF4FA5100687D
:1008C000B0FBF1F0009000BF0098411E0091FAD2F9
:1008D0000EE080E0C0F80080FFF7E4FD074604E08A
:1008E000FFF7E0FDC01B022875D8686A8007F7D4BF
:1008F0002078400760D5E8690027C00008D4E8697F
:1009000040F08050E861E869012700F080500090D5
:100910005C480168C90513D40168834641F48071BD
:100920000160FFF7BFFD824606E000BFFFF7BAFD9A
:10093000A0EB0A0064284ED8DBF80000C005F5D50E
:10094000E06801280AD008B1052813D0286A20F0F1
:1009500001002862286A20F0040002E0286A40F0C2
:1009600001002862E06841F2883B98B1FFF79AFDE8
:1009700082460BE0286A40F004002862EEE700BFE0
:10098000FFF790FDA0EB0A0159455AD8286A800765
:10099000F6D50CE0FFF786FD824605E0FFF782FD05
:1009A000A0EB0A0159454CD8286A8007F6D41FB13C
:1009B000E86920F08050E861E06988B36968C1F3B4
:1009C0008101022944D00228C6F8608004D0FFF7D4
:1009D00069FD044638E034E0FFF764FD074604E0B3
:1009E000FFF760FDC01B02282BD828688001F7D4D0
:1009F000206AB0F5803F05D16868A16820F4003016
:100A000008436860D4E908010843696821F4741157
:100A100008436860C6F86090FFF744FD044606E0AE
:100A200025E000BFFFF73EFD001B022809D828681B
:100A30008001F7D51BE000BFFFF734FD001B022843
:100A400002D90320BDE8F88F28688001F4D40EE0B5
:100A50000128F7D06868226A00F48031914204D1FD
:100A6000616A00F47010884201D00120EAE700209A
:100A7000E8E70000001002400000424280044242C9
:100A8000400000200070004010B5401EB0F1807F93
:100A900001D3012010BD4FF0E02460610F216017E9
:100AA00000F01DFA0020A06107202061002010BD89
:100AB000FEE70000094808B5816941F02001816125
:100AC000816901F020010091816941F00401816197
:100AD000806900F00400009008BD00000010024092
:100AE000FEE700000C4941630C4981630C49C16376
:100AF0000C4901640C4941640C4981644FF07C51FC
:100B0000C1640B490163002141608160C160816162
:100B1000C1610162704700001283403D8FC2F53C05
:100B20002DB23D3FFE65373F6666E63F2766BD3B1B
:100B30000000C0412DE9F047056B0E46044685F0E4
:100B4000004791463946304602F044F801D23D460E
:100B500005E02946304602F03DF900D33546676886
:100B6000606C394602F06AF8A66880463146206C0F
:100B700002F064F8294602F08FF9414602F01EFAAD
:100B8000A16C01F01DFF2061A16901F0A5FE49469D
:100B900002F054F84FF0FF35294602F0E4FA3946E6
:100BA00001F09AFE014660604C4A26F000409042F7
:100BB0000ADAE06B02F042F820F00040E16C02F04B
:100BC00009F801D200201AE0A66816F1FF4F02D200
:100BD0004FF07E5000E04248E16C02F02FF80746EB
:100BE0003146A06B02F02AF806466168E06B02F01D
:100BF00025F8314602F0E2F9394602F0DFF960618A
:100C0000616B01F0DDFE60610646E16901F064FEA2
:100C1000494602F013F82F46294602F0A4FAA168CB
:100C200001F05AFEA0600546216A01F055FE4946D2
:100C300002F004F8394602F096FAE16801F04CFE41
:100C4000E06020692562C4E90606FFF7C5FB254977
:100C500001F0F4FF616801F03FFE234E314601F0E0
:100C6000AFFE0D2102F07FFA00F0EEFD01F086FFED
:100C70006FF00C05294602F076FA314601F0DEFFEE
:100C80001A4E60623146E06801F09AFE0D2102F0D2
:100C90006AFA00F0D9FD01F071FF294602F063FA0B
:100CA000314601F0CBFFE16A02F088F9494601F0D4
:100CB00087FEA0623146E06801F082FE0D2102F05D
:100CC00052FA00F0C1FD01F059FF294602F04BFA3B
:100CD000314601F0B3FFE062BDE8F0876F12033BDD
:100CE000000080BF9A99993E56555541DA0FC94088
:100CF000FEE700002DE9F041244C88460168606958
:100D000002F05CF906464146A06101F097FF2168B8
:100D100001F0E2FD2060E76905463946304602F001
:100D20004DF9414601F04CFE014660601848C4E9A7
:100D30000767854202DC1748854200D92060206998
:100D400001F07CFF07462168E06801F077FF054667
:100D50003146A06801F072FF294601F0BDFD394619
:100D600001F0BAFD0C496062C968B1F1804F0BD047
:100D70000A4A914208D10549283948610348414649
:100D8000503000F00DF86062BDE8F0818400002072
:100D900056555541565555C10000002000004040B1
:100DA0002DE9F0411C4C88460168606902F006F9A3
:100DB00006464146A06101F041FF216801F08CFD2B
:100DC0002060E76905463946304602F0F7F84146AB
:100DD00001F0F6FD014660601048C4E907678542EE
:100DE00002DC0F48854200D92060206901F026FF0F
:100DF00007462168E06801F021FF05463146A068FA
:100E000001F01CFF294601F067FD394601F064FD41
:100E10006062BDE8F08100005C000020565555413D
:100E2000565555C1704770477047FFF741BB30B505
:100E30008FB028216846FFF723FA14210AA8FFF78C
:100E40001FFA01210804CDE90010002402940225B4
:100E50000491CDE907504FF4E01009906846FFF780
:100E600083FC08B172B6FEE70F20CDE90A054FF406
:100E70008060CDE90C4002210AA80E94FFF7B8FB70
:100E8000002801D072B6FEE70FB030BD7047FEE714
:100E9000490050EAC12018BF04204A0D18BF40F095
:100EA000010040F2FF72B2EB515F08BF40F0020058
:100EB000012808BF052070474100080218BF042020
:100EC0000A0E18BF40F001004FF07F4232EA0101E4
:100ED00008BF40F00200012808BF0520704709073D
:100EE000090E002804DB00F1E02080F800147047B0
:100EF00000F00F0000F1E02080F8141D70470000A2
:100F00002DE9F74F144694B00021C4E90211159958
:100F1000079121F00045C9498D4206DC1599C4E9C5
:100F2000000117B00020BDE8F08FC549DFF814A319
:100F3000A9423CDD0799C44E0029C44FC44A159903
:100F4000534619DD01F0B2FB554506D0C14AC24BEC
:100F500001F0ACFBC4E900010AE04FF0D352BE4BF4
:100F600001F0A4FB32463B4601F0A0FBC4E90001BE
:100F700017B00120BDE8F08F01F02CF8554506D0E0
:100F8000B44AB54B01F026F8C4E900010AE04FF07D
:100F9000D352B14B01F01EF832463B4601F01AF82D
:100FA000C4E9000117B04FF0FF30BDE8F08FAB4946
:100FB000A942159978DB21F0004183468846A84A6A
:100FC000A84B01F069FA0022A74B01F003F801F0E9
:100FD00009FA099001F035FA06460F469C4A534635
:100FE00001F05AFA43465A4601F054FB80468A46BD
:100FF000984A994B3046394601F04EFA2A0D0125A0
:101000000B924246534601F045FB032DC4E9000113
:1010100039D00B98C1F30A51401A05EB451111392B
:10102000814230DA9148C346784400EB0510CDF890
:101030000CA00C90D0E900233046394601F02CFA80
:1010400002460B46049106905846039901F02EFB88
:1010500080468A4602460B465846039901F026FB15
:10106000049B069A01F022FB83460C9803913946B3
:10107000D0E90223304601F00FFA5A46039B01F0F3
:1010800015FB6D1CBDE707980028A2BF099817B093
:10109000BDE8F08F616881F000416160099817B088
:1010A0004042BDE8F08FFFE784461598C1F3130175
:1010B000C0F30A50A0F2F5304FEA601800F01F06A6
:1010C000C6F12000139000200690079041F4801E86
:1010D00005206D4676B1664A08EB00017A4452F865
:1010E000213002EB8101B3404A68139922FA01F1E1
:1010F000194305E05F4908EB0002794451F82210DA
:10110000A1FB0E27A1FB0C131A449A4234BF012302
:10111000002303EB070A05EB8003D3E901B70F4473
:101120008F4234BF0121002193448B4411B1934578
:1011300002D903E0934501D2012100E00021C3E977
:1011400001B7514445F82010011EA0F10100C1DC97
:101150000298059F00F10050800F12900298DDE97F
:101160000356800001F06DF9834628460D9101F089
:101170007FF96FF01D0201F0C8FFCDE90E01304686
:1011800001F076F96FF03D0201F0BFFF80468A461C
:10119000384601F06DF96FF05D0201F0B6FF0746C9
:1011A00042465346119100F015FFDDE90E2300F091
:1011B00011FF5A460D9B00F00DFF00250E465A46C2
:1011C00028460D9B01F072FADDE90E2301F06EFA5C
:1011D0004246534601F06AFA3A46119B01F05AFA28
:1011E000DFF898A0244A534601F056F9074688468E
:1011F000234A244B3146284601F04EF93A464346ED
:1012000000F0E8FE074688464FF0A84253463146B4
:10121000284601F041F93A46434600F0DBFE159AB4
:1012200012F0004F04D0129A81F000415242129203
:10123000C4E90001129817B0BDE8F08FFB21E93F27
:101240007CD90240FB21F93F7370032E8A19A33B1E
:10125000000040543163621A61B4D03DFB21394132
:1012600083C8C96D305FE43F0000E03F4C220000BE
:10127000C8210000AA210000182D4454FB21F93D8B
:101280003326A611460B113C2DE9FF4D21F00048F5
:1012900007460C46B8F1795F08DA01F0A3F8002898
:1012A00001BF0020324904B0BDE8F08D3A46234624
:1012B0001046194601F0F0F8054602462D480E4644
:1012C0000B460621784400F05DF82A46334601F0CB
:1012D000E3F8DDE9022382468B463846214601F0D9
:1012E000DBF804460F4652465B462846314601F07D
:1012F000D3F822463B4601F0D9F907468A464FF01B
:10130000FF322846314601F000FF1B4A90450ADAB9
:101310003A46534601F0CAF904B00022BDE8F04D48
:10132000134B01F0B7B9154A4245A8BFA8F50015FF
:101330004FF00004B8BF124D22462B4601F0B6F91B
:101340000646884622462B460020094901F0AEF9A0
:1013500004460D463A4653463046414601F0A6F94A
:1013600004B022462B46BDE8F04D01F093B90000D1
:101370000000F03F801F00003333D33F0000E93FFF
:101380000000D23F2DE9F0414F1E00EBC70104469B
:10139000D1E9000115461E4637F006020DD02A4657
:1013A000334601F079F87F1E04EBC703D3E900232D
:1013B00000F010FE37F00602F1D1022F25D0042FE5
:1013C00013D0062F18BFBDE8F0812A46334601F03E
:1013D00063F8D4E90A2300F0FDFD2A46334601F004
:1013E0005BF8D4E9082300F0F5FD2A46334601F006
:1013F00053F8D4E9062300F0EDFD2A46334601F008
:101400004BF8D4E9042300F0E5FD2A46334601F009
:1014100043F8D4E9022300F0DDFD2A46334601F00B
:101420003BF8D4E90023BDE8F04100F0D3BD000053
:101430002DE9FF4D054621F0004084B00C46B0F187
:10144000795F0BDA2846FFF723FD042808BF00F078
:101450006FF8284608B02146BDE8F08D2A460B46B5
:10146000104601F019F806460F462A46234601F0B9
:1014700013F8804626488A4632463B460521784482
:10148000FFF780FF83461098029160B3214A224BF8
:101490004046514601F000F8CDE900015A46404669
:1014A0005146029B00F0F8FF82468846DDE90601BE
:1014B0004FF0FF3201F029FE5246434601F0F6F8A4
:1014C00032463B4600F0E8FFDDE9062301F0EEF886
:1014D000DDE9002301F0EAF808B02A462346BDE81A
:1014E000F04D01F0D7B80B465A463046394600F069
:1014F000D3FF084A084B00F06DFD4246534600F00A
:10150000CBFF08B02A462346BDE8F04D00F062BD8F
:10151000DE1E0000495555555555C5BF012201F045
:10152000F4BD002213461046114600F003BE000031
:10153000024A0020110701F0E8BD000001FDFFFF95
:1015400000214FF07E5001F03BBA012101F00BBEAB
:101550000021084601F034BA6FF05E01080701F07F
:1015600002BE00002DE9F04D0D4614464FF07F41BC
:10157000B1EB440F9EBF4FF0FF312960BDE8F08D05
:101580004FF0004040EA0421C4F3C750783810F00F
:101590001F024A4B4FEA601CC2F120067B44C4F391
:1015A000C750A0F178004FEA601003EB800053F8B9
:1015B0002C3008BFD0E901C612D0D0F804C0934047
:1015C0002CFA06F73B4387680CFA02FC27FA06F868
:1015D000C06807FA02F2F0404CEA080C42EA000642
:1015E000A3FB0132ACFB01C0A6FB016101EB0C06C1
:1015F0008E4234BF4FF0010C4FF0000CC118614413
:10160000BCF1000F02D0814202D903E0814201D235
:10161000012000E00020104400F120024FEA92185F
:101620008006CA0C40EA42304F03C5F8008001F042
:10163000A5FA8246384601F0B9FA6FF0120101F0BE
:1016400092FD0746304601F0B1FA6FF0250101F036
:101650008AFD83463946504601F03EF9594601F06D
:101660003BF900F500666FF30B065146304601F07A
:10167000A5FC394601F0A2FC594601F00DFC1049C9
:1016800001F0DCFA07460F49304601F0D7FA394637
:1016900001F022F907460C49304601F0CFFA3946ED
:1016A00001F01AF914F0004F08BFBDE8F08DC8F141
:1016B000805180F000402960BDE8F08DA01D000041
:1016C000DB0FC92F22AAFD290000C92F2DE9F843FD
:1016D000044602464F486946B0EB420F09D94FF025
:1016E000E640B0EB420F94BF00204FF0FF30009077
:1016F00030E0494B22F00040834271D947492046EF
:1017000001F09CFA01F098FB804601F01BFA00F012
:10171000030000904249404601F090FA05464149D5
:10172000404601F08BFA06463F49404601F086FAF2
:1017300007463E49404601F081FA214601F0ACFBE4
:10174000394601F03BFC314601F038FC294601F0F6
:1017500035FC04462546009C002C45DB294614F048
:10176000010F08461CD001F069FA0646304901F025
:1017700065FA304901F090FB314601F05FFA2E49DD
:1017800001F0AAF8314601F059FA294601F056FA5B
:10179000294601F0A1F814F0020F1CD0BDE8F8832F
:1017A00001F04CFA0546254901F048FA244901F0B8
:1017B00093F8294601F042FA224901F08DF82946B2
:1017C00001F03CFA4FF07E5101F086F814F0020F60
:1017D00008BFBDE8F88380F00040BDE8F883FFE76C
:1017E0001046FFF7BFFEB4E76800B0F17F4F3CBF83
:1017F0004FF07E50BDE8F88307D14FF00100FEF7AF
:101800006EFDBDE8F843FFF7A3BE2846BDE8F843E8
:10181000FFF79BBEB61F927E490E494683F9223FD1
:101820001A61342C0020A23300A0FD390000C93F0A
:10183000336D4C39DA82083CA0AA2ABEB93AB2BA52
:10184000CA9F2A3DDDFFFFBE70B5054601F07AF95B
:10185000044601F093F9294601F01EFBB0F17C5FCC
:1018600000DD641C204670BD2DE9F0410026A0F586
:101870000001B1F1FE4F7DD200F500226FF07E0134
:1018800001EBE251C2F3025477184FF07E52A0EB05
:10189000C15602EB045557EA040047D029463046AA
:1018A00001F01AF880462946304601F087FB414690
:1018B00001F086F80546014601F0C0F98046454929
:1018C00001F0BCF9444901F007F8064641462846B4
:1018D00001F0B4F9314601F0B1F90646384601F09D
:1018E0004DF907463D4901F0A9F93D49794451F8C0
:1018F000241000F0F1FF314600F0EEFF0646012112
:10190000284601F030FC314600F0E6FF0546384637
:10191000344901F093F93449794451F8241000F026
:10192000DBFF2946BDE8F04100F0D6BF4FF07E5105
:10193000304601F043FB05462C4901F07FF92C4964
:1019400000F0CAFF294601F079F92A4900F0C4FFE6
:10195000294601F073F96FF0824100F0BDFF0446A3
:101960002946084601F06AF9214601F067F9014667
:10197000284600E003E0BDE8F04100F0ADBF4FF0C5
:101980007F42B2EB400F03D2BDE8F041FFF7DDBD6F
:10199000B0F1FF4F08BFBDE8F081B0F1004F06D9AC
:1019A0000120FEF79CFCBDE8F041FFF7D1BD30F00F
:1019B000004105D06FF01606172101F0D4FB5BE75C
:1019C0000220FEF78CFCFFF7BBFD80F00040BDE875
:1019D000F081000066F1CC3EAAAA2A3FF4FD05384A
:1019E000341900000070313FE818000021ED423E3C
:1019F0000A1180BEC1ABAA3EFEF762FDFFF717FADF
:101A0000FFF758F84820FEF7CBFC6F48FFF76AF85D
:101A10006D48503800F044F96B48283800F0F6F86B
:101A2000DFF8A4A1DFF8A481694C6A4D4FF07E5B1A
:101A30004FF08049AAF1280A65483030FEF796FC3D
:101A400001462061606800F047FF60605E48FEF775
:101A500013FD20625C48FEF711FDA0615A48FEF7B5
:101A600009FDE061E068584505D1574821692830F3
:101A7000FFF796F96061E0684F46B84201D04045F3
:101A800005D1514821692C30FFF734F96061A06815
:101A9000B8422CD1E0684646B04215D04A49606849
:101AA00050394861294601F0C9F800F0E9FE00F01C
:101AB00035F9494A494B00F0EFFC00F059FACAF8F1
:101AC0001400A068B84212D1E068B04233D1294670
:101AD000606801F0B3F800F0D3FE00F01FF93E4A51
:101AE0003E4B00F0D9FC00F043FACAF81400A0689D
:101AF0004646B04216D1E068B04213D0384960681B
:101B000001F09CF800F0BCFE00F008F90022354B13
:101B100000F0C2FC00F02CFA2B495039486100203B
:101B2000CAF81400A068B04205D1E068B04202D102
:101B30000020CAF814002168606900F0CDFE01465B
:101B400021482269FEF7F6FF2549606801F076F822
:101B500000F096FE244A254B00F0A8FD00F0DEF8C8
:101B6000234A244B00F098FC00F002FA60622946F8
:101B7000606801F063F800F083FE00221E4B00F065
:101B800095FD00F0CBF81D4E1D4F32463B4600F050
:101B900083FC00F0EDF9A0622946606801F04EF880
:101BA00000F06EFE174A184B00F080FD00F0B6F80A
:101BB00032463B4600F070FC00F0DAF9E0620120AA
:101BC000FEF75EFC38E70000AC000020000040405B
:101BD000000000200000A0406E861BF0F921194093
:101BE000000070410000244085EB51B81E85DB3FAA
:101BF00048E17A14AE471C400000F83F5EE2FA3D2F
:101C0000D2C411408FC2F5285C8FEA3F70B5002125
:101C10001B4A016041601B4E9468B5071A4BB4F132
:101C20007E5F07D0AC421FD1D268AA4215D1C0E96D
:101C3000023117E0D268154CAA4204D1C0E902363D
:101C4000C0E9045415E09A4213D1114A8260114A46
:101C5000C260114AC0E904240BE09A4209D10F4A3C
:101C6000C0E90221016104E09C4202D10561C0E9A2
:101C7000023681614269C0E90721416270BD0000FE
:101C800000000020CDCC4C3E00004040DA0FC9409F
:101C90000000A0409A99993E9A99F93FCDCCA44072
:101CA00070B50021184B016041609C684FF07E5672
:101CB000164A4FF08045B4420CD1DB68B34205D1DF
:101CC000C0E90225124AC0E9041216E0934214D179
:101CD000104A0FE0AC420BD1DB680F4D4FF082444D
:101CE000B34201D0934208D18460C0E9035104E0BB
:101CF000944202D1C0E90221016181614269C0E9D7
:101D00000721416270BD000000000020000040403B
:101D1000000020416666263F0000A04000B5254B2C
:101D200021F0004287B09A4203DC00221346009261
:101D30002BE0214B9A4208D140B94FF00100FEF749
:101D4000CEFAFFF7EEFB07B000BD03DBFFF7E6FBC3
:101D500007B000BD02AAFFF7D3F810F003014FF05F
:101D600001000DD0012914D002291AD00DF1080C60
:101D70009CE80F00FFF788FA07B081F0004100BD32
:101D80000DF1080C00909CE80F00FFF751FB07B025
:101D900000BD0DF1080C9CE80F00FFF775FA07B0C5
:101DA00000BD0DF1080C00909CE80F00FFF740FB10
:101DB000E2E70000FB21E93F0000F07F2DE9F84356
:101DC0000446024652486946B0EB420F09D94FF02B
:101DD000E640B0EB420F94BF00204FF0FF30009080
:101DE00030E04C4B22F00040834271D94A492046F2
:101DF00000F024FF01F020F8804600F0A3FE00F080
:101E0000030000904549404600F018FF054644494C
:101E1000404600F013FF06464249404600F00EFFE0
:101E200007464149404600F009FF214601F034F8D9
:101E3000394601F0C3F8314601F0C0F8294601F0F7
:101E4000BDF804462546009C002C45DB294614F0CD
:101E5000010F08461ED000F0F1FE0546334900F0A0
:101E6000EDFE334900F038FD294600F0E7FE314928
:101E700000F032FD294600F0E1FE4FF07E5100F007
:101E80002BFD14F0020F08BFBDE8F88380F000407E
:101E9000BDE8F88300F0D2FE0646274900F0CEFEEA
:101EA000264900F0F9FF314600F0C8FE244900F051
:101EB00013FD314600F0C2FE294600F0BFFE294660
:101EC00000F00AFD14F0020FE0D1BDE8F883FFE74F
:101ED0001046FFF747FBB4E76800B0F17F4F09D227
:101EE0002846FEF7E9FF042808BFFFF735FB284620
:101EF000BDE8F88306D10120FEF7F1F9BDE8F8430B
:101F0000FFF726BB2846BDE8F843FFF71EBB0000DD
:101F1000B61F927E490E494683F9223F1A61342C3E
:101F20000020A23300A0FD390000C93FB93AB2BA7F
:101F3000CA9F2A3DDDFFFFBE336D4C39DA82083C73
:101F4000A0AA2ABE70B5054600F0B0FF044620F0F6
:101F50000040C0F1FF40C00F08D025F00040C0F1A4
:101F6000FF40C00F04BF0120FEF7B9F9204670BD45
:101F700021F00042A2F16052B2F5801F01F000434F
:101F800028BFD2F17F6C0BD95FEA001C43EAC20282
:101F900042EB507018BF704728BF20F00100704717
:101FA000B2F5801FBCBF184670474FEA410C1CF5C4
:101FB000001F02D2084600F008BF70B500F016FB03
:101FC00000000089FFF7F6BF4FF00040A0F5800049
:101FD0007047000010B591EA030F48BF83F000433B
:101FE00000F16C83841A71EB030C05D2121943EBD8
:101FF0000C03001B61EB0C01DFF824E14FEA1154E4
:10200000A4EB135C1EEA430F18BF9EEA445F73D033
:1020100023EA0E03DCF1200E21EA045143F480137D
:1020200032D322FA0CFE10EB0E0023FA0CFE41EB29
:102030000E01CCF1200E03FA0EFE10EB0E0051F152
:102040000001B1F5801FCCF1200E32D201EB04511A
:1020500012FA0EF2BDE8104058BF7047401C38BF5E
:102060005FEA420218BF7047002814BF20F0010049
:1020700041F100014FEA410313F5001F38BF7047DB
:10208000A1F1C04100F000BB012A43EB0302ACF117
:10209000200CDCF11F0E32BF4FF0000E23FA0CF3C0
:1020A00010EB030041EB0451B4EB115FD0D0A1EB76
:1020B000045101F5801149085FEA300001EB045139
:1020C0000ED350F1000038BF12FA0EFE08D1BDE861
:1020D0001040C9E7401C38BF5FEA4202CAD1C3E7DB
:1020E000BDE810404FEA410313F5001F38BF7047A9
:1020F000A1F1C04100F0C8BA9EEA445F08D011EADD
:102100005E0FBDE8104004BF01F0004100207047A1
:10211000BDE8104070B500F069FA00BF64FBBE3E38
:102120000000E0FF02494FF0000000F0BCBF00BF1C
:102130000000F87F2DE9C04130B4DFF8A0C23CEACE
:10214000111418BF3CEA131400F0EC8081EA030577
:102150001CEA111444EAD57418BF1CEA131500F0E8
:10216000C780A4EB05044FF0004545EAC12145EACC
:10217000C32341EA505143EA525304F17F74994218
:1021800004F500344FEAC0204FEAC22208BF904253
:1021900000F09C804FEA13650FF24016765D4FEA1F
:1021A000134506FB05F7C7F1807706FB07F74FEAF3
:1021B000D737A7FB03687642C8F58038A7FB06CE61
:1021C00038BFA8F1010807FB08E64FF0000EA6FB98
:1021D000028CE6FB03CEDCF1000CCEF1004E38BFE2
:1021E000AEF1010EA6FB0C584FF000074FF00005B2
:1021F000E6FB0E87A1FB08C6A0FB07CE16EB0E067A
:1022000045F10005E1FB076515F1E04E7EBFA4F541
:1022100080345FEA46066D4116F1800745F10005FE
:102220004FEA17274FEA066647EA0567A6F1DE463A
:10223000B6F1805F4FEA15251FD9384624F0010C0E
:1022400005EBC471BCF1FE6F01EB0C1102D8F0BCC0
:10225000BDE8008124425CBF01F5801E9EEAC47F78
:1022600002D4F0BCBDE80081244238D4F0BCA1F116
:10227000C041BDE8004100F007BA4FEAD22242EA6D
:1022800043524FEAD323A7FB02864FEAD02040EA0D
:10229000415007FB03661EEA0E0F4FEAD12105FBF2
:1022A000026658BFA6EB0056B6EB00564FEA520E38
:1022B0004EEAC37E18EB0E0E56EB530EBDD518EB4F
:1022C00002085E417F1C55F10005B6E74FF480150A
:1022D0004FF000074FF000064FF00008ADE7F0BCEC
:1022E0004FF0000001F1C04101F00041BDE8008164
:1022F00011EA0C1F0CEA131500D00CE013EA0C1FB6
:1023000000F025804FF00000F0BC81EA030101F0ED
:102310000041BDE80081F0BCBDE8004181EA030155
:1023200000F0B2B9F0BCBDE8004170B500F05EF954
:10233000097EFC3E00F007B881EA03014FF000007F
:1023400001F00041704781EA030100F09DB9F0BC43
:10235000BDE800414FF0000021497047FFFDFBF947
:10236000F7F5F4F2F0EEEDEBE9E8E6E4E3E1E0DEC8
:10237000DDDBDAD8D7D5D4D3D1D0CFCDCCCBCAC83A
:10238000C7C6C5C4C2C1C0BFBEBDBCBBBAB9B8B761
:10239000B6B5B4B3B2B1B0AFAEADACABAAA9A8A854
:1023A000A7A6A5A4A3A3A2A1A09F9F9E9D9C9C9B22
:1023B0009A999998979796959594939392919190CD
:1023C0008F8F8E8E8D8C8C8B8B8A8989888887875E
:1023D0008685858484838382828181800000FF07D3
:1023E0000000F87F4FEA41034FEA5353A3F580639F
:1023F000D3F11E03C8BFD3F1210C0CDD4FF0004216
:1024000042EAC12242EA505232FA03FC8CEAE17CF1
:10241000ACEBE1707047102BC4BF0020704703F590
:10242000787CBCF1FF3F04D06FF0004282EA2100CB
:10243000704770B500F0DAF84992248000207047A8
:10244000F2E710F0004248BF4042B0FA80F310FAC1
:1024500003F10AD0C3F11D0303F580634FEA415035
:1024600002EB035202EBD12170474FF0000070479E
:10247000B0FA80F310FA03F10AD0C3F11D0303F59B
:1024800080634FEA41504FEA035202EBD12170477B
:102490004FF0000070470000DFF848C170B51CEA3B
:1024A000111E1EBF1CEA13159EEA0C0F95EA0C0FB5
:1024B00000F06F8081EA030423EA4C134EEAD47ED5
:1024C00021EA4C1141F4801143F48013AE44A1FB86
:1024D000024CA0FB0365AEF17F7E361955EB0C056F
:1024E000A1FB034C4CF10003A0FB021C16EB0C06F5
:1024F000654153F10003094218BF46F0010613F489
:10250000007F0BD14FEA03314FEA0530340341EA33
:10251000155140EA16506FF003020AE04FEAC3215A
:102520004FEAC520F40241EA555140EA56506FF097
:10253000020202EB2E4201EB025585EACE710AD06F
:102540005FEA440C18BF24F0004450F1000041F150
:10255000000120EAD47040F2FE7C624500D270BDDA
:10256000A84214BF4FF080444FF04044002E08BFF3
:102570000024BEF1806FA8BFA1F1C041BDE870404A
:1025800080F282804FF0000001F1C04101F0004173
:1025900070479EEA0C0F0CEA131518BF95EA0C0F52
:1025A00006D04FF0000081EA030E0EF0004170BD2E
:1025B00000F01CF88900013E00F007B800F009B8EF
:1025C0004FEA430C5FEA5C5C08D081EA030100F04B
:1025D0005BB84FEA410C5FEA5C5CF6D14FF000005B
:1025E000014970470000FF070000F87F0EF1020E5E
:1025F0002EF0030E5EF8046B364205D4012A43EB3D
:10260000030515F5001F12D8012841EB010C1CF53C
:10261000001F0CD80ED14FEAD17C15F5001F0CEB32
:102620004C0C0CF1020C08BF4CEBD37C04E04FF0D7
:10263000080C01E04FEAD37C0CEB4C0526FA05F6BA
:1026400006F00706B6F1040C06D20EEB860CBDE8C8
:1026500070404CF0010C6047DFE80CF0090B0202FF
:102660004FF000414FF00000A1F5002170BD194668
:102670001046012851EB010418BFD4F5001484BFA3
:10268000002001F0004170BD0808A0F500114FEADC
:102690003101704791EA030F10B581F000413FF519
:1026A000A1AC83F0004300F009B8000010B591EA36
:1026B000030F48BF83F000433FF594AC841A71EBDD
:1026C000030C07D212198CF0004C43EB0C03001BD7
:1026D00061EB0C01DFF8A4E14FEA1154A4EB135CA9
:1026E0001EEA430F18BF9EEA445F00F0B08023EA61
:1026F0006E03524221EA0451C3EB6E0338BF5B1EE6
:10270000DCF1200E25D322FA0CFE10EB0E0043FA6A
:102710000CFE41EB0E01CCF1200E03FA0EFE10EB85
:102720000E0051F10001CCF1200E29D412FA0EF264
:1027300001EB0451BDE8104058BF7047401C1CBF5E
:10274000B2F1004F704700280CBF491C20F0010077
:10275000704712EB020E43EB030218BF4FF0010E5D
:102760004EEA4202ACF1200CDCF11E0E54D943FAC1
:102770000CFE10EB0E0051F1FF31CCF11E0ED5D541
:102780000EF1010E12FA0EFE404141EB010101EB88
:10279000445C5FEA5C5C10D910EBDE7001EB045125
:1027A00038BFBEF1004FBDE8104018BF7047002889
:1027B0000CBF491C20F00100704730D24FEAD42CE6
:1027C00011F5001124F400641BD0B1FA81F20B3A28
:1027D000A41AA41ED2F12003914030FA03F3194346
:1027E000904001EBCC71002C01EB0451BDE810408E
:1027F000A8BF704701F1C0414FF0000001F0004157
:102800007047B0FA80F310FA03F100D110BDE41A5A
:10281000173C4805C90AE4E701EB045110BD491013
:1028200001EB0451BDE810404FEA300002E04FF0E8
:10283000000170474A0008BF0042F8D0B2F5001FFF
:1028400028BF704701F000414FF0000070479EEA3A
:10285000445F07D011EA5E0FBDE8104004BF0021BD
:1028600000207047BDE8104070B5FFF7BFFE00BF05
:1028700040DFF63E83F00041104670470000E0FF65
:1028800043004FEAD30C4FEA3C0C43401FBF4007C4
:102890000CF1605113F0FE4F70471CF0006F03D134
:1028A00000200CF0004170470CF0004343EA5070E8
:1028B00010B540EACC0000F042FA00BF00000092E0
:1028C0004FEA0001FFF7E0BE4FF000414FF000007B
:1028D000A1F500217047000090EA010F48BF81F088
:1028E000004100F17283421A3CBF801A89184FEAF6
:1028F000D0524FF07F4C1CEA410FA2EBD15318BFCE
:102900009CEA026F00F03B804FF0004C4CEA002044
:102910004CEA012121FA03FC10EB0C0C1ED202F14F
:10292000FF325FEA1C2040EBC25038BF70471CF0FA
:102930007F0F4FEA400C18BFBCF17F4F38BF704784
:10294000C3F12003994008BF20F00100BCF17F4F84
:1029500038BF7047A0F1C04000F037BA4FEA3C00E2
:10296000000A40EBC25028BF1CF0FF0F4FEA400C9A
:10297000E6D018BFBCF17F4F38BF7047EAE79CEA4A
:10298000026F05D010EA5C0F08BF00F000407047EE
:1029900010B500F0D4F900BF64FBBE3E014800F062
:1029A00082BB00BF0000C07F401058BFC0F1404054
:1029B000491058BFC1F140418142EFF30080704798
:1029C0004FF47F0C1CEAD0121EBF1CEAD11392EA0E
:1029D0000C0F93EA0C0F00F0858090EA010F48BFBE
:1029E00042F4807240F4000C41F400002CF07F416E
:1029F00020F07F4000B58142A2EB03020FF2081CD9
:102A0000ACEB504EC0F100009EF800E04FEA4E0ED5
:102A100000FB0EFC38BF49004FEA2C1C02F5FA02FD
:102A20000CFB0EF34FEACE1E4FEA112C4FEAC121E8
:102A30000EEB635E42EB22420EFB0CFC4FEA1C5392
:102A400000FB03114FEA112C4FEA01310EFB0CFC85
:102A50004FEADC4C00FB0C11C14228BF09184CEBBB
:102A600003335DF804EB10EB410143EBC250B2F5C8
:102A70007C0F38BF704729D512F0F00F1CBF00F152
:102A8000C04000F0004070470081828384858687C3
:102A900088898B8C8D8E8F919293959697999A9C1D
:102AA0009D9FA0A2A3A5A7A8AAACAEB0B2B3B5B78C
:102AB000B9BCBEC0C2C5C7C9CCCED1D4D7D9DCDF62
:102AC000E2E6E9ECF0F3F7FAFE0000004FEA400C12
:102AD0000CF1807CBCF17E4F28BF7047B0F1C04044
:102AE00000F073B990EA010F0CEAD11348BF42F429
:102AF0008072624538BF634507D213F47F0F16D04A
:102B000080EA010000F00040704710B500F017F9AE
:102B1000097EFC3E00F005B880EA010000F00040AC
:102B2000704780EA010000F0004000F04EB912F456
:102B30007F0F04BF0248704780EA010000F045B9EA
:102B40000000C07F41000B0ED3F19E0208D950F463
:102B500000034FEA032323FA02F048BF40427047C4
:102B600010B500F0ECF800BF4992248000207047B7
:102B70006FF0004282EA20007047000010F0004130
:102B800048BF4042B0FA80F310FA03F2C3F19D034C
:102B90000BD051EAC35101EB1220530638BF7047E6
:102BA00000F1010008BF20F001007047B0FA80F387
:102BB00010FA03F2C3F19D030AD0D90501EB1220EC
:102BC000530638BF704700F1010008BF20F0010034
:102BD0007047000050EA010C00F113801CF5000F53
:102BE00058BFBCF5000F01D48842704707D710F5D5
:102BF000000F58BF11F5000F15D488427047894265
:102C000070471CF5000F04D5BCF5000FF7D58142C5
:102C100070474FF0807C1CEB400F38BF1CEB410F1E
:102C200001D28142704710B500F089F89224490022
:102C30004FF000504FF08051FFF7B6BE4FF47F0CBD
:102C40001CEAD0121EBF1CEAD11392EA0C0F93EAC1
:102C50000C0F00F0478090EA010F48BF42F48072E9
:102C60004FF0004C4CEA00204CEA012102EB030239
:102C7000A0FB0113A2F50002002918BF43F00103D5
:102C80005B0028BF4FEA330342EB22425FEA132C7A
:102C90004CEBC2502EBFBCEB436FB2F57C0F7047BC
:102CA0004FEA036CBCF1004F08BF20F00100B2F501
:102CB0007C0F38BF70470BD582F0FF0212F5803FC2
:102CC000C8BF704700F1C040D8BF00F00040704757
:102CD00000F5000C5FEA4C0C48BF7047B0F1C040F3
:102CE00000F073B890EA010F0CEAD11348BF42F428
:102CF0008072624538BF634504D280EA010000F06B
:102D00000040704710B500F01AF800BF8900013E7E
:102D100000F007B800F009B85FEA410C5FEA1C6CEC
:102D200008D080EA010000F050B85FEA400C5FEA8A
:102D30001C6CF6D14FF00040A0F5800070470EF1FA
:102D4000020E2EF0030E5EF8044B244204D44FEA28
:102D50004102B2F17F4F11D84FEA4003B3F17F4FE8
:102D60000CD80ED14FEAD07CB2F17F4F0CEB4C0C5B
:102D70000CF1020C08BF4CEBD17C04E04FF0080CC6
:102D800001E04FEAD17C0CEB4C0324FA03F404F08D
:102D90000704B4F1040C06D20EEB840CBDE810401D
:102DA0004CF0010C6047DFE80CF0070802024FF01E
:102DB0000040A0F5800010BD0846420018BFD2F1C7
:102DC000807288BF00F0004010BDFF2141EAD05062
:102DD000C005704751EA000C00F113801CF5000F8C
:102DE00058BFBCF5000F01D48142704707D711F5D9
:102DF000000F58BF10F5000F15D48142704789426B
:102E000070471CF5000F04D5BCF5000FF7D58842BC
:102E100070474FF0807C1CEB410F38BF1CEB400F1C
:102E200001D28842704780EA010081EA000180EA0D
:102E30000100FFF7F8BE00005FEA400C5FEA1C6C7F
:102E4000BCF17F0314D4D3F1170240F31C804FF080
:102E5000010C0CFA02FCACF101030340B3EB5C0281
:102E600020EA030008BF10EA0C0F88BF60447047D7
:102E7000B3F1FF3F28BF5FEA002C00F0004088BF9D
:102E800040F07E507047BCF1FF0FB8BF704710B5DF
:102E9000FFF755FF40DBB6BE80F0004090EA010F1F
:102EA0007FF521AD81F0004100F08FB84FEAD0519D
:102EB000002988BFD1F1FF0240F2758001F17D0148
:102EC0004FEA002070B5490840F0004038BF400884
:102ED0000EA2430E040CD25C02FB02F304FB03F3CC
:102EE000C3F14043A3FB0254ED0D45EA442202FB2B
:102EF00002F3A0FB03546D42C4F1404438BF641E8A
:102F0000A2FB05350023E2FB0453EA0B42EA4342ED
:102F1000A0FB023212F14004A2F12103E40903F004
:102F20007F031F2B32D904EBC15070BDFEFAF7F3BB
:102F3000F0ECE9E6E4E1DEDCD9D7D4D2D0CECCCADD
:102F4000C8C6C4C2C1BFBDBCBAB9B7B6B4B3B2B0CB
:102F5000AFAEACABAAA9A8A7A6A4A3A2A1A09F9E0E
:102F60009E9D9C9B9A9998979796959493939291EE
:102F700090908F8E8E8D8C8C8B8A8A89898887879A
:102F800086868584848383828281818004FB04F623
:102F9000B6EB004603D5E64248BF641CC3E7A64231
:102FA00058BF641CBFE711F0FF0F02D100F00040D2
:102FB000704710B5FFF7C3FE7FDBFFBE90EA010F3D
:102FC00048BF81F000413FF58EAC421A04D882F030
:102FD0000042A0EB020011444FEAD0524FF07F4C68
:102FE0001CEA410FA2EBD15318BF9CEA026F4AD0F2
:102FF0004FF0004C4CEA00204CEA012121FA03FC7E
:10300000B0EB0C0C0FD412F0FE0F36D05FEA4C0080
:103010001DD5001240EBC25038BF70471CF03F0F67
:1030200018BF70470BE0A2F101025FEA1C2040EBE1
:10303000C25038BF70471CF07F0F18BF7047C3F1F4
:103040002003994014BF401E20F001007047800803
:103050004FEA122308BF7047B0FA80FCA2EB0C02C3
:10306000CCF1280C60FA0CF093EA122F04BF00EBAD
:10307000C25070474FEAC3707047130A5FEADC1012
:1030800008BF7047F6E79CEA026F04D010EA5C0FB5
:1030900008BF0020704710B5FFF751FE40DFF63E35
:1030A00081F0004070470CF00F03092B08BF082087
:1030B00000F07F800A2B0BD0082B18BF704708BF89
:1030C0001CF0400F0AD04FF000004FF00001704795
:1030D0001CF0400F18BF4FF0004070471CF0100F5D
:1030E00008D020F0704300F07F4242EAD3014FEA5B
:1030F0004370704700F0604021F07F4242EA0002D6
:1031000001F07F4040EA727070474FF0FF0C4CF4C2
:10311000E06C1CEA11531CBF9CEA030C9445C2BF2F
:10312000DA4201EB02517047002B0DD0BCF1000FC9
:103130000FD0002A01F00041A4BF41F0E04141F06E
:103140007F614FF00000704701F000414FF0000038
:10315000704750EA01334FF09B0C18BF4CF0806C65
:103160007EF4E0AF70474FF0FF0212EAD0521CBF6E
:1031700092F0FF038B42C2BFD14200EBC1507047B7
:10318000002A0AD0002B0BD0002900F00040A4BF79
:1031900040F0FE4040F40000704700F000407047EF
:1031A00043024FF00B0C18BF4CF0806C7FF4F6AB71
:1031B00070471CF4801F11D01CF4E02F03D06FEA7D
:1031C000CC31490070474FF04050EFF3008222F0BD
:1031D000704242EA000282F3008870474FF000001C
:1031E0007047010202030405060708090A0B0C0DCB
:1031F0000E0F101000000000000000000102030488
:1032000006070809000000000030F13D0070643E30
:103210000000A33E0090CF3E0090F83E00400F3FDC
:1032200000E0203F0000000015B78337CDE37B3876
:103230000EE1C53860F69138AF5F0F38E1BC3E381B
:1032400023F44739000000004C5555555555A53F0E
:103250007751C1166CC156BF9015CB19A001FA3E2B
:10326000AD529C804F7E92BEC4B1B4BD9EEE213E55
:10327000D43888BEE9FAA8BD00004054FB21F93FCC
:103280003163621A61B4D03D0000601A61B4D03D70
:103290007370032E8A19A33B0000002E8A19A33BEA
:1032A000C14920259A837B390000000000000000FE
:1032B0006E83F9A22915444ED15727FCC0DD34F5A1
:1032C000999562DB4190433CAB6351FE61C5BBDE27
:1032D0003A6E24B7E0D24D42EA2E49061C92D1093B
:1032E0001CEB1DFE3EA729B1F53582E88444BB2EB8
:1032F00026709CE9417E5FB439D69139F439538305
:103300008B5F849C3B28F9BDFF97F81F0F9805DE63
:103310008B112FEF1F6D0A5ACF7E366DB709CB2761
:10332000663F464F2DEA5F9EC7BA27757BF1E5EBF6
:10333000F739073DEA92528AB15FFB6B085D8D1F3A
:10334000000000006E83F9A22915444ED15727FCD6
:10335000C0DD34F5999562DB4190433CAB6351FE8F
:10336000A6F810111111813FD561C119A0012ABF22
:103370007DFEB157E31DC73EEB9C2B8AE6E55ABEA6
:103380007CD5CF5A3AD9E53DA8330008000000208B
:103390005C0000006C010008043400085C000020A0
:1033A000E4070000880100080000000000000000A1
:1033B000000040400000404000000000000000000D
:1033C00000000000000000000000000000000000FD
:1033D00000000000000000000000000001000000EC
:1033E000100000000000000000127A000000000041
:1033F00000000000000000000000000000000000CD
:0434000000000000C8
:0400000508000131BD
:00000001FF
